{
  "_format": "hh-sol-artifact-1",
  "contractName": "ReviewAndRating",
  "sourceName": "contracts/ReviewAndRating.sol",
  "abi": [
    {
      "anonymous": false,
      "inputs": [
        {
          "indexed": false,
          "internalType": "string",
          "name": "transactionId",
          "type": "string"
        },
        {
          "components": [
            {
              "internalType": "string",
              "name": "reviewer",
              "type": "string"
            },
            {
              "internalType": "string",
              "name": "reviewee",
              "type": "string"
            },
            {
              "internalType": "string",
              "name": "transactionId",
              "type": "string"
            },
            {
              "internalType": "string",
              "name": "comment",
              "type": "string"
            },
            {
              "internalType": "string",
              "name": "rating",
              "type": "string"
            },
            {
              "internalType": "string",
              "name": "createdAt",
              "type": "string"
            }
          ],
          "indexed": false,
          "internalType": "struct ReviewAndRating.Review",
          "name": "review",
          "type": "tuple"
        }
      ],
      "name": "ReviewSubmitted",
      "type": "event"
    },
    {
      "inputs": [
        {
          "internalType": "string",
          "name": "",
          "type": "string"
        }
      ],
      "name": "productReviews",
      "outputs": [
        {
          "internalType": "string",
          "name": "reviewer",
          "type": "string"
        },
        {
          "internalType": "string",
          "name": "reviewee",
          "type": "string"
        },
        {
          "internalType": "string",
          "name": "transactionId",
          "type": "string"
        },
        {
          "internalType": "string",
          "name": "comment",
          "type": "string"
        },
        {
          "internalType": "string",
          "name": "rating",
          "type": "string"
        },
        {
          "internalType": "string",
          "name": "createdAt",
          "type": "string"
        }
      ],
      "stateMutability": "view",
      "type": "function"
    },
    {
      "inputs": [
        {
          "components": [
            {
              "internalType": "string",
              "name": "reviewer",
              "type": "string"
            },
            {
              "internalType": "string",
              "name": "reviewee",
              "type": "string"
            },
            {
              "internalType": "string",
              "name": "transactionId",
              "type": "string"
            },
            {
              "internalType": "string",
              "name": "comment",
              "type": "string"
            },
            {
              "internalType": "string",
              "name": "rating",
              "type": "string"
            },
            {
              "internalType": "string",
              "name": "createdAt",
              "type": "string"
            }
          ],
          "internalType": "struct ReviewAndRating.Review",
          "name": "newReview",
          "type": "tuple"
        }
      ],
      "name": "submitReview",
      "outputs": [],
      "stateMutability": "nonpayable",
      "type": "function"
    }
  ],
  "bytecode": "0x6080604052348015600f57600080fd5b50610e7a8061001f6000396000f3fe608060405234801561001057600080fd5b50600436106100365760003560e01c8063523a83f91461003b57806354be351314610057575b600080fd5b610055600480360381019061005091906104d0565b61008c565b005b610071600480360381019061006c919061065f565b610116565b60405161008396959493929190610727565b60405180910390f35b80600082806040019061009f91906107c1565b6040516100ad929190610854565b908152602001604051809103902081816100c79190610c38565b9050507fe066493309378d42761abfc45a249acec31fe1e1155855c940a65f8f3165c5f68180604001906100fb91906107c1565b8360405161010b93929190610e0b565b60405180910390a150565b60008180516020810182018051848252602083016020850120818352809550505050505060009150905080600001805461014f906108a7565b80601f016020809104026020016040519081016040528092919081815260200182805461017b906108a7565b80156101c85780601f1061019d576101008083540402835291602001916101c8565b820191906000526020600020905b8154815290600101906020018083116101ab57829003601f168201915b5050505050908060010180546101dd906108a7565b80601f0160208091040260200160405190810160405280929190818152602001828054610209906108a7565b80156102565780601f1061022b57610100808354040283529160200191610256565b820191906000526020600020905b81548152906001019060200180831161023957829003601f168201915b50505050509080600201805461026b906108a7565b80601f0160208091040260200160405190810160405280929190818152602001828054610297906108a7565b80156102e45780601f106102b9576101008083540402835291602001916102e4565b820191906000526020600020905b8154815290600101906020018083116102c757829003601f168201915b5050505050908060030180546102f9906108a7565b80601f0160208091040260200160405190810160405280929190818152602001828054610325906108a7565b80156103725780601f1061034757610100808354040283529160200191610372565b820191906000526020600020905b81548152906001019060200180831161035557829003601f168201915b505050505090806004018054610387906108a7565b80601f01602080910402602001604051908101604052809291908181526020018280546103b3906108a7565b80156104005780601f106103d557610100808354040283529160200191610400565b820191906000526020600020905b8154815290600101906020018083116103e357829003601f168201915b505050505090806005018054610415906108a7565b80601f0160208091040260200160405190810160405280929190818152602001828054610441906108a7565b801561048e5780601f106104635761010080835404028352916020019161048e565b820191906000526020600020905b81548152906001019060200180831161047157829003601f168201915b5050505050905086565b6000604051905090565b600080fd5b600080fd5b600080fd5b600060c082840312156104c7576104c66104ac565b5b81905092915050565b6000602082840312156104e6576104e56104a2565b5b600082013567ffffffffffffffff811115610504576105036104a7565b5b610510848285016104b1565b91505092915050565b600080fd5b600080fd5b6000601f19601f8301169050919050565b7f4e487b7100000000000000000000000000000000000000000000000000000000600052604160045260246000fd5b61056c82610523565b810181811067ffffffffffffffff8211171561058b5761058a610534565b5b80604052505050565b600061059e610498565b90506105aa8282610563565b919050565b600067ffffffffffffffff8211156105ca576105c9610534565b5b6105d382610523565b9050602081019050919050565b82818337600083830152505050565b60006106026105fd846105af565b610594565b90508281526020810184848401111561061e5761061d61051e565b5b6106298482856105e0565b509392505050565b600082601f83011261064657610645610519565b5b81356106568482602086016105ef565b91505092915050565b600060208284031215610675576106746104a2565b5b600082013567ffffffffffffffff811115610693576106926104a7565b5b61069f84828501610631565b91505092915050565b600081519050919050565b600082825260208201905092915050565b60005b838110156106e25780820151818401526020810190506106c7565b60008484015250505050565b60006106f9826106a8565b61070381856106b3565b93506107138185602086016106c4565b61071c81610523565b840191505092915050565b600060c082019050818103600083015261074181896106ee565b9050818103602083015261075581886106ee565b9050818103604083015261076981876106ee565b9050818103606083015261077d81866106ee565b9050818103608083015261079181856106ee565b905081810360a08301526107a581846106ee565b9050979650505050505050565b600080fd5b600080fd5b600080fd5b600080833560016020038436030381126107de576107dd6107b2565b5b80840192508235915067ffffffffffffffff821115610800576107ff6107b7565b5b60208301925060018202360383131561081c5761081b6107bc565b5b509250929050565b600081905092915050565b600061083b8385610824565b93506108488385846105e0565b82840190509392505050565b600061086182848661082f565b91508190509392505050565b600082905092915050565b7f4e487b7100000000000000000000000000000000000000000000000000000000600052602260045260246000fd5b600060028204905060018216806108bf57607f821691505b6020821081036108d2576108d1610878565b5b50919050565b60008190508160005260206000209050919050565b60006020601f8301049050919050565b600082821b905092915050565b60006008830261093a7fffffffffffffffffffffffffffffffffffffffffffffffffffffffffffffffff826108fd565b61094486836108fd565b95508019841693508086168417925050509392505050565b6000819050919050565b6000819050919050565b600061098b6109866109818461095c565b610966565b61095c565b9050919050565b6000819050919050565b6109a583610970565b6109b96109b182610992565b84845461090a565b825550505050565b600090565b6109ce6109c1565b6109d981848461099c565b505050565b5b818110156109fd576109f26000826109c6565b6001810190506109df565b5050565b601f821115610a4257610a13816108d8565b610a1c846108ed565b81016020851015610a2b578190505b610a3f610a37856108ed565b8301826109de565b50505b505050565b600082821c905092915050565b6000610a6560001984600802610a47565b1980831691505092915050565b6000610a7e8383610a54565b9150826002028217905092915050565b610a98838361086d565b67ffffffffffffffff811115610ab157610ab0610534565b5b610abb82546108a7565b610ac6828285610a01565b6000601f831160018114610af55760008415610ae3578287013590505b610aed8582610a72565b865550610b55565b601f198416610b03866108d8565b60005b82811015610b2b57848901358255600182019150602085019450602081019050610b06565b86831015610b485784890135610b44601f891682610a54565b8355505b6001600288020188555050505b50505050505050565b610b69838383610a8e565b505050565b6000810160008301610b8081856107c1565b610b8b818386610b5e565b505050506001810160208301610ba181856107c1565b610bac818386610b5e565b505050506002810160408301610bc281856107c1565b610bcd818386610b5e565b505050506003810160608301610be381856107c1565b610bee818386610b5e565b505050506004810160808301610c0481856107c1565b610c0f818386610b5e565b505050506005810160a08301610c2581856107c1565b610c30818386610b5e565b505050505050565b610c428282610b6e565b5050565b6000610c5283856106b3565b9350610c5f8385846105e0565b610c6883610523565b840190509392505050565b600080fd5b600080fd5b600080fd5b60008083356001602003843603038112610c9f57610c9e610c7d565b5b83810192508235915060208301925067ffffffffffffffff821115610cc757610cc6610c73565b5b600182023603831315610cdd57610cdc610c78565b5b509250929050565b600082825260208201905092915050565b6000610d028385610ce5565b9350610d0f8385846105e0565b610d1883610523565b840190509392505050565b600060c08301610d366000840184610c82565b8583036000870152610d49838284610cf6565b92505050610d5a6020840184610c82565b8583036020870152610d6d838284610cf6565b92505050610d7e6040840184610c82565b8583036040870152610d91838284610cf6565b92505050610da26060840184610c82565b8583036060870152610db5838284610cf6565b92505050610dc66080840184610c82565b8583036080870152610dd9838284610cf6565b92505050610dea60a0840184610c82565b85830360a0870152610dfd838284610cf6565b925050508091505092915050565b60006040820190508181036000830152610e26818587610c46565b90508181036020830152610e3a8184610d23565b905094935050505056fea264697066735822122002c6a817f8273ddc3e7ca30a0c4dbea257ccfd16eacde1fb58f8dd5a12083f0f64736f6c634300081c0033",
  "linkReferences": {},
  "deployedLinkReferences": {}
}