{
  "_format": "hh-sol-artifact-1",
  "contractName": "ProductRegistry",
  "sourceName": "contracts/ProductRegistry.sol",
  "abi": [
    {
      "anonymous": false,
      "inputs": [
        {
          "components": [
            {
              "internalType": "string",
              "name": "productId",
              "type": "string"
            },
            {
              "internalType": "string",
              "name": "name",
              "type": "string"
            },
            {
              "internalType": "string",
              "name": "price",
              "type": "string"
            },
            {
              "internalType": "string",
              "name": "attributes",
              "type": "string"
            },
            {
              "internalType": "string",
              "name": "isBidding",
              "type": "string"
            },
            {
              "internalType": "string",
              "name": "isNegotiable",
              "type": "string"
            },
            {
              "internalType": "string",
              "name": "owner",
              "type": "string"
            },
            {
              "internalType": "string",
              "name": "createdAt",
              "type": "string"
            }
          ],
          "indexed": false,
          "internalType": "struct ProductRegistry.Product",
          "name": "product",
          "type": "tuple"
        }
      ],
      "name": "ProductRegistered",
      "type": "event"
    },
    {
      "inputs": [
        {
          "internalType": "string",
          "name": "",
          "type": "string"
        }
      ],
      "name": "products",
      "outputs": [
        {
          "internalType": "string",
          "name": "productId",
          "type": "string"
        },
        {
          "internalType": "string",
          "name": "name",
          "type": "string"
        },
        {
          "internalType": "string",
          "name": "price",
          "type": "string"
        },
        {
          "internalType": "string",
          "name": "attributes",
          "type": "string"
        },
        {
          "internalType": "string",
          "name": "isBidding",
          "type": "string"
        },
        {
          "internalType": "string",
          "name": "isNegotiable",
          "type": "string"
        },
        {
          "internalType": "string",
          "name": "owner",
          "type": "string"
        },
        {
          "internalType": "string",
          "name": "createdAt",
          "type": "string"
        }
      ],
      "stateMutability": "view",
      "type": "function"
    },
    {
      "inputs": [
        {
          "components": [
            {
              "internalType": "string",
              "name": "productId",
              "type": "string"
            },
            {
              "internalType": "string",
              "name": "name",
              "type": "string"
            },
            {
              "internalType": "string",
              "name": "price",
              "type": "string"
            },
            {
              "internalType": "string",
              "name": "attributes",
              "type": "string"
            },
            {
              "internalType": "string",
              "name": "isBidding",
              "type": "string"
            },
            {
              "internalType": "string",
              "name": "isNegotiable",
              "type": "string"
            },
            {
              "internalType": "string",
              "name": "owner",
              "type": "string"
            },
            {
              "internalType": "string",
              "name": "createdAt",
              "type": "string"
            }
          ],
          "internalType": "struct ProductRegistry.Product",
          "name": "newProduct",
          "type": "tuple"
        }
      ],
      "name": "registerProduct",
      "outputs": [],
      "stateMutability": "nonpayable",
      "type": "function"
    }
  ],
  "bytecode": "0x6080604052348015600f57600080fd5b50610ff98061001f6000396000f3fe608060405234801561001057600080fd5b50600436106100365760003560e01c80630186a4231461003b57806338617c0814610072575b600080fd5b610055600480360381019061005091906106fe565b61008e565b6040516100699897969594939291906107c6565b60405180910390f35b61008c600480360381019061008791906108a1565b61052c565b005b6000818051602081018201805184825260208301602085012081835280955050505050506000915090508060000180546100c790610919565b80601f01602080910402602001604051908101604052809291908181526020018280546100f390610919565b80156101405780601f1061011557610100808354040283529160200191610140565b820191906000526020600020905b81548152906001019060200180831161012357829003601f168201915b50505050509080600101805461015590610919565b80601f016020809104026020016040519081016040528092919081815260200182805461018190610919565b80156101ce5780601f106101a3576101008083540402835291602001916101ce565b820191906000526020600020905b8154815290600101906020018083116101b157829003601f168201915b5050505050908060020180546101e390610919565b80601f016020809104026020016040519081016040528092919081815260200182805461020f90610919565b801561025c5780601f106102315761010080835404028352916020019161025c565b820191906000526020600020905b81548152906001019060200180831161023f57829003601f168201915b50505050509080600301805461027190610919565b80601f016020809104026020016040519081016040528092919081815260200182805461029d90610919565b80156102ea5780601f106102bf576101008083540402835291602001916102ea565b820191906000526020600020905b8154815290600101906020018083116102cd57829003601f168201915b5050505050908060040180546102ff90610919565b80601f016020809104026020016040519081016040528092919081815260200182805461032b90610919565b80156103785780601f1061034d57610100808354040283529160200191610378565b820191906000526020600020905b81548152906001019060200180831161035b57829003601f168201915b50505050509080600501805461038d90610919565b80601f01602080910402602001604051908101604052809291908181526020018280546103b990610919565b80156104065780601f106103db57610100808354040283529160200191610406565b820191906000526020600020905b8154815290600101906020018083116103e957829003601f168201915b50505050509080600601805461041b90610919565b80601f016020809104026020016040519081016040528092919081815260200182805461044790610919565b80156104945780601f1061046957610100808354040283529160200191610494565b820191906000526020600020905b81548152906001019060200180831161047757829003601f168201915b5050505050908060070180546104a990610919565b80601f01602080910402602001604051908101604052809291908181526020018280546104d590610919565b80156105225780601f106104f757610100808354040283529160200191610522565b820191906000526020600020905b81548152906001019060200180831161050557829003601f168201915b5050505050905088565b80600082806000019061053f9190610959565b60405161054d9291906109ec565b908152602001604051809103902081816105679190610db2565b9050507f38291be26d25173ccfbde4ced21cc891770e537a3b8e781f09358d444b6e4485816040516105999190610fa1565b60405180910390a150565b6000604051905090565b600080fd5b600080fd5b600080fd5b600080fd5b6000601f19601f8301169050919050565b7f4e487b7100000000000000000000000000000000000000000000000000000000600052604160045260246000fd5b61060b826105c2565b810181811067ffffffffffffffff8211171561062a576106296105d3565b5b80604052505050565b600061063d6105a4565b90506106498282610602565b919050565b600067ffffffffffffffff821115610669576106686105d3565b5b610672826105c2565b9050602081019050919050565b82818337600083830152505050565b60006106a161069c8461064e565b610633565b9050828152602081018484840111156106bd576106bc6105bd565b5b6106c884828561067f565b509392505050565b600082601f8301126106e5576106e46105b8565b5b81356106f584826020860161068e565b91505092915050565b600060208284031215610714576107136105ae565b5b600082013567ffffffffffffffff811115610732576107316105b3565b5b61073e848285016106d0565b91505092915050565b600081519050919050565b600082825260208201905092915050565b60005b83811015610781578082015181840152602081019050610766565b60008484015250505050565b600061079882610747565b6107a28185610752565b93506107b2818560208601610763565b6107bb816105c2565b840191505092915050565b60006101008201905081810360008301526107e1818b61078d565b905081810360208301526107f5818a61078d565b90508181036040830152610809818961078d565b9050818103606083015261081d818861078d565b90508181036080830152610831818761078d565b905081810360a0830152610845818661078d565b905081810360c0830152610859818561078d565b905081810360e083015261086d818461078d565b90509998505050505050505050565b600080fd5b600061010082840312156108985761089761087c565b5b81905092915050565b6000602082840312156108b7576108b66105ae565b5b600082013567ffffffffffffffff8111156108d5576108d46105b3565b5b6108e184828501610881565b91505092915050565b7f4e487b7100000000000000000000000000000000000000000000000000000000600052602260045260246000fd5b6000600282049050600182168061093157607f821691505b602082108103610944576109436108ea565b5b50919050565b600080fd5b600080fd5b600080fd5b600080833560016020038436030381126109765761097561094a565b5b80840192508235915067ffffffffffffffff8211156109985761099761094f565b5b6020830192506001820236038313156109b4576109b3610954565b5b509250929050565b600081905092915050565b60006109d383856109bc565b93506109e083858461067f565b82840190509392505050565b60006109f98284866109c7565b91508190509392505050565b600082905092915050565b60008190508160005260206000209050919050565b60006020601f8301049050919050565b600082821b905092915050565b600060088302610a727fffffffffffffffffffffffffffffffffffffffffffffffffffffffffffffffff82610a35565b610a7c8683610a35565b95508019841693508086168417925050509392505050565b6000819050919050565b6000819050919050565b6000610ac3610abe610ab984610a94565b610a9e565b610a94565b9050919050565b6000819050919050565b610add83610aa8565b610af1610ae982610aca565b848454610a42565b825550505050565b600090565b610b06610af9565b610b11818484610ad4565b505050565b5b81811015610b3557610b2a600082610afe565b600181019050610b17565b5050565b601f821115610b7a57610b4b81610a10565b610b5484610a25565b81016020851015610b63578190505b610b77610b6f85610a25565b830182610b16565b50505b505050565b600082821c905092915050565b6000610b9d60001984600802610b7f565b1980831691505092915050565b6000610bb68383610b8c565b9150826002028217905092915050565b610bd08383610a05565b67ffffffffffffffff811115610be957610be86105d3565b5b610bf38254610919565b610bfe828285610b39565b6000601f831160018114610c2d5760008415610c1b578287013590505b610c258582610baa565b865550610c8d565b601f198416610c3b86610a10565b60005b82811015610c6357848901358255600182019150602085019450602081019050610c3e565b86831015610c805784890135610c7c601f891682610b8c565b8355505b6001600288020188555050505b50505050505050565b610ca1838383610bc6565b505050565b6000810160008301610cb88185610959565b610cc3818386610c96565b505050506001810160208301610cd98185610959565b610ce4818386610c96565b505050506002810160408301610cfa8185610959565b610d05818386610c96565b505050506003810160608301610d1b8185610959565b610d26818386610c96565b505050506004810160808301610d3c8185610959565b610d47818386610c96565b505050506005810160a08301610d5d8185610959565b610d68818386610c96565b505050506006810160c08301610d7e8185610959565b610d89818386610c96565b505050506007810160e08301610d9f8185610959565b610daa818386610c96565b505050505050565b610dbc8282610ca6565b5050565b600080fd5b600080fd5b600080fd5b60008083356001602003843603038112610dec57610deb610dca565b5b83810192508235915060208301925067ffffffffffffffff821115610e1457610e13610dc0565b5b600182023603831315610e2a57610e29610dc5565b5b509250929050565b600082825260208201905092915050565b6000610e4f8385610e32565b9350610e5c83858461067f565b610e65836105c2565b840190509392505050565b60006101008301610e846000840184610dcf565b8583036000870152610e97838284610e43565b92505050610ea86020840184610dcf565b8583036020870152610ebb838284610e43565b92505050610ecc6040840184610dcf565b8583036040870152610edf838284610e43565b92505050610ef06060840184610dcf565b8583036060870152610f03838284610e43565b92505050610f146080840184610dcf565b8583036080870152610f27838284610e43565b92505050610f3860a0840184610dcf565b85830360a0870152610f4b838284610e43565b92505050610f5c60c0840184610dcf565b85830360c0870152610f6f838284610e43565b92505050610f8060e0840184610dcf565b85830360e0870152610f93838284610e43565b925050508091505092915050565b60006020820190508181036000830152610fbb8184610e70565b90509291505056fea2646970667358221220524348af46fa4db1b04bbc4e5d276de626f54eb01ad71e231f1eca4738dd470364736f6c634300081c0033",
  "linkReferences": {},
  "deployedLinkReferences": {}
}