{
  "_format": "hh-sol-artifact-1",
  "contractName": "ReceiptBook",
  "sourceName": "contracts/ReceiptBook.sol",
  "abi": [
    {
      "anonymous": false,
      "inputs": [
        {
          "components": [
            {
              "internalType": "string",
              "name": "transactionId",
              "type": "string"
            },
            {
              "internalType": "string",
              "name": "productId",
              "type": "string"
            },
            {
              "internalType": "string",
              "name": "buyer",
              "type": "string"
            },
            {
              "internalType": "string",
              "name": "seller",
              "type": "string"
            },
            {
              "internalType": "string",
              "name": "amount",
              "type": "string"
            },
            {
              "internalType": "string",
              "name": "meetUpLocation",
              "type": "string"
            },
            {
              "internalType": "string",
              "name": "scheduledMeetUpAt",
              "type": "string"
            },
            {
              "internalType": "string",
              "name": "createdAt",
              "type": "string"
            },
            {
              "internalType": "string",
              "name": "status",
              "type": "string"
            }
          ],
          "indexed": false,
          "internalType": "struct ReceiptBook.Receipt",
          "name": "receipt",
          "type": "tuple"
        }
      ],
      "name": "ReceiptIssued",
      "type": "event"
    },
    {
      "inputs": [
        {
          "components": [
            {
              "internalType": "string",
              "name": "transactionId",
              "type": "string"
            },
            {
              "internalType": "string",
              "name": "productId",
              "type": "string"
            },
            {
              "internalType": "string",
              "name": "buyer",
              "type": "string"
            },
            {
              "internalType": "string",
              "name": "seller",
              "type": "string"
            },
            {
              "internalType": "string",
              "name": "amount",
              "type": "string"
            },
            {
              "internalType": "string",
              "name": "meetUpLocation",
              "type": "string"
            },
            {
              "internalType": "string",
              "name": "scheduledMeetUpAt",
              "type": "string"
            },
            {
              "internalType": "string",
              "name": "createdAt",
              "type": "string"
            },
            {
              "internalType": "string",
              "name": "status",
              "type": "string"
            }
          ],
          "internalType": "struct ReceiptBook.Receipt",
          "name": "newReceipt",
          "type": "tuple"
        }
      ],
      "name": "issueReceipt",
      "outputs": [],
      "stateMutability": "nonpayable",
      "type": "function"
    },
    {
      "inputs": [
        {
          "internalType": "string",
          "name": "",
          "type": "string"
        }
      ],
      "name": "receipts",
      "outputs": [
        {
          "internalType": "string",
          "name": "transactionId",
          "type": "string"
        },
        {
          "internalType": "string",
          "name": "productId",
          "type": "string"
        },
        {
          "internalType": "string",
          "name": "buyer",
          "type": "string"
        },
        {
          "internalType": "string",
          "name": "seller",
          "type": "string"
        },
        {
          "internalType": "string",
          "name": "amount",
          "type": "string"
        },
        {
          "internalType": "string",
          "name": "meetUpLocation",
          "type": "string"
        },
        {
          "internalType": "string",
          "name": "scheduledMeetUpAt",
          "type": "string"
        },
        {
          "internalType": "string",
          "name": "createdAt",
          "type": "string"
        },
        {
          "internalType": "string",
          "name": "status",
          "type": "string"
        }
      ],
      "stateMutability": "view",
      "type": "function"
    }
  ],
  "bytecode": "0x6080604052348015600f57600080fd5b506110e68061001f6000396000f3fe608060405234801561001057600080fd5b50600436106100365760003560e01c806303c044931461003b57806380721bb914610057575b600080fd5b6100556004803603810190610050919061066c565b61008f565b005b610071600480360381019061006c91906107fb565b610107565b604051610086999897969594939291906108c3565b60405180910390f35b8060008280600001906100a2919061099e565b6040516100b0929190610a31565b908152602001604051809103902081816100ca9190610e79565b9050507fbebec81e1729d3d67d8bc56c2274c0d148f71ba293f56808170715bd841325dd816040516100fc919061108e565b60405180910390a150565b60008180516020810182018051848252602083016020850120818352809550505050505060009150905080600001805461014090610a84565b80601f016020809104026020016040519081016040528092919081815260200182805461016c90610a84565b80156101b95780601f1061018e576101008083540402835291602001916101b9565b820191906000526020600020905b81548152906001019060200180831161019c57829003601f168201915b5050505050908060010180546101ce90610a84565b80601f01602080910402602001604051908101604052809291908181526020018280546101fa90610a84565b80156102475780601f1061021c57610100808354040283529160200191610247565b820191906000526020600020905b81548152906001019060200180831161022a57829003601f168201915b50505050509080600201805461025c90610a84565b80601f016020809104026020016040519081016040528092919081815260200182805461028890610a84565b80156102d55780601f106102aa576101008083540402835291602001916102d5565b820191906000526020600020905b8154815290600101906020018083116102b857829003601f168201915b5050505050908060030180546102ea90610a84565b80601f016020809104026020016040519081016040528092919081815260200182805461031690610a84565b80156103635780601f1061033857610100808354040283529160200191610363565b820191906000526020600020905b81548152906001019060200180831161034657829003601f168201915b50505050509080600401805461037890610a84565b80601f01602080910402602001604051908101604052809291908181526020018280546103a490610a84565b80156103f15780601f106103c6576101008083540402835291602001916103f1565b820191906000526020600020905b8154815290600101906020018083116103d457829003601f168201915b50505050509080600501805461040690610a84565b80601f016020809104026020016040519081016040528092919081815260200182805461043290610a84565b801561047f5780601f106104545761010080835404028352916020019161047f565b820191906000526020600020905b81548152906001019060200180831161046257829003601f168201915b50505050509080600601805461049490610a84565b80601f01602080910402602001604051908101604052809291908181526020018280546104c090610a84565b801561050d5780601f106104e25761010080835404028352916020019161050d565b820191906000526020600020905b8154815290600101906020018083116104f057829003601f168201915b50505050509080600701805461052290610a84565b80601f016020809104026020016040519081016040528092919081815260200182805461054e90610a84565b801561059b5780601f106105705761010080835404028352916020019161059b565b820191906000526020600020905b81548152906001019060200180831161057e57829003601f168201915b5050505050908060080180546105b090610a84565b80601f01602080910402602001604051908101604052809291908181526020018280546105dc90610a84565b80156106295780601f106105fe57610100808354040283529160200191610629565b820191906000526020600020905b81548152906001019060200180831161060c57829003601f168201915b5050505050905089565b6000604051905090565b600080fd5b600080fd5b600080fd5b6000610120828403121561066357610662610647565b5b81905092915050565b6000602082840312156106825761068161063d565b5b600082013567ffffffffffffffff8111156106a05761069f610642565b5b6106ac8482850161064c565b91505092915050565b600080fd5b600080fd5b6000601f19601f8301169050919050565b7f4e487b7100000000000000000000000000000000000000000000000000000000600052604160045260246000fd5b610708826106bf565b810181811067ffffffffffffffff82111715610727576107266106d0565b5b80604052505050565b600061073a610633565b905061074682826106ff565b919050565b600067ffffffffffffffff821115610766576107656106d0565b5b61076f826106bf565b9050602081019050919050565b82818337600083830152505050565b600061079e6107998461074b565b610730565b9050828152602081018484840111156107ba576107b96106ba565b5b6107c584828561077c565b509392505050565b600082601f8301126107e2576107e16106b5565b5b81356107f284826020860161078b565b91505092915050565b6000602082840312156108115761081061063d565b5b600082013567ffffffffffffffff81111561082f5761082e610642565b5b61083b848285016107cd565b91505092915050565b600081519050919050565b600082825260208201905092915050565b60005b8381101561087e578082015181840152602081019050610863565b60008484015250505050565b600061089582610844565b61089f818561084f565b93506108af818560208601610860565b6108b8816106bf565b840191505092915050565b60006101208201905081810360008301526108de818c61088a565b905081810360208301526108f2818b61088a565b90508181036040830152610906818a61088a565b9050818103606083015261091a818961088a565b9050818103608083015261092e818861088a565b905081810360a0830152610942818761088a565b905081810360c0830152610956818661088a565b905081810360e083015261096a818561088a565b905081810361010083015261097f818461088a565b90509a9950505050505050505050565b600080fd5b600080fd5b600080fd5b600080833560016020038436030381126109bb576109ba61098f565b5b80840192508235915067ffffffffffffffff8211156109dd576109dc610994565b5b6020830192506001820236038313156109f9576109f8610999565b5b509250929050565b600081905092915050565b6000610a188385610a01565b9350610a2583858461077c565b82840190509392505050565b6000610a3e828486610a0c565b91508190509392505050565b600082905092915050565b7f4e487b7100000000000000000000000000000000000000000000000000000000600052602260045260246000fd5b60006002820490506001821680610a9c57607f821691505b602082108103610aaf57610aae610a55565b5b50919050565b60008190508160005260206000209050919050565b60006020601f8301049050919050565b600082821b905092915050565b600060088302610b177fffffffffffffffffffffffffffffffffffffffffffffffffffffffffffffffff82610ada565b610b218683610ada565b95508019841693508086168417925050509392505050565b6000819050919050565b6000819050919050565b6000610b68610b63610b5e84610b39565b610b43565b610b39565b9050919050565b6000819050919050565b610b8283610b4d565b610b96610b8e82610b6f565b848454610ae7565b825550505050565b600090565b610bab610b9e565b610bb6818484610b79565b505050565b5b81811015610bda57610bcf600082610ba3565b600181019050610bbc565b5050565b601f821115610c1f57610bf081610ab5565b610bf984610aca565b81016020851015610c08578190505b610c1c610c1485610aca565b830182610bbb565b50505b505050565b600082821c905092915050565b6000610c4260001984600802610c24565b1980831691505092915050565b6000610c5b8383610c31565b9150826002028217905092915050565b610c758383610a4a565b67ffffffffffffffff811115610c8e57610c8d6106d0565b5b610c988254610a84565b610ca3828285610bde565b6000601f831160018114610cd25760008415610cc0578287013590505b610cca8582610c4f565b865550610d32565b601f198416610ce086610ab5565b60005b82811015610d0857848901358255600182019150602085019450602081019050610ce3565b86831015610d255784890135610d21601f891682610c31565b8355505b6001600288020188555050505b50505050505050565b610d46838383610c6b565b505050565b6000810160008301610d5d818561099e565b610d68818386610d3b565b505050506001810160208301610d7e818561099e565b610d89818386610d3b565b505050506002810160408301610d9f818561099e565b610daa818386610d3b565b505050506003810160608301610dc0818561099e565b610dcb818386610d3b565b505050506004810160808301610de1818561099e565b610dec818386610d3b565b505050506005810160a08301610e02818561099e565b610e0d818386610d3b565b505050506006810160c08301610e23818561099e565b610e2e818386610d3b565b505050506007810160e08301610e44818561099e565b610e4f818386610d3b565b50505050600881016101008301610e66818561099e565b610e71818386610d3b565b505050505050565b610e838282610d4b565b5050565b600080fd5b600080fd5b600080fd5b60008083356001602003843603038112610eb357610eb2610e91565b5b83810192508235915060208301925067ffffffffffffffff821115610edb57610eda610e87565b5b600182023603831315610ef157610ef0610e8c565b5b509250929050565b600082825260208201905092915050565b6000610f168385610ef9565b9350610f2383858461077c565b610f2c836106bf565b840190509392505050565b60006101208301610f4b6000840184610e96565b8583036000870152610f5e838284610f0a565b92505050610f6f6020840184610e96565b8583036020870152610f82838284610f0a565b92505050610f936040840184610e96565b8583036040870152610fa6838284610f0a565b92505050610fb76060840184610e96565b8583036060870152610fca838284610f0a565b92505050610fdb6080840184610e96565b8583036080870152610fee838284610f0a565b92505050610fff60a0840184610e96565b85830360a0870152611012838284610f0a565b9250505061102360c0840184610e96565b85830360c0870152611036838284610f0a565b9250505061104760e0840184610e96565b85830360e087015261105a838284610f0a565b9250505061106c610100840184610e96565b858303610100870152611080838284610f0a565b925050508091505092915050565b600060208201905081810360008301526110a88184610f37565b90509291505056fea26469706673582212206881d75588886d85f9e0dafa89f99f6d4ff146372f8c6d7680ad5adcc0f0d0e164736f6c634300081c0033",
  "linkReferences": {},
  "deployedLinkReferences": {}
}