{"contracts/ReceiptBook.sol":{"ReceiptBook":{"abi":[{"anonymous":false,"inputs":[{"components":[{"internalType":"string","name":"transactionId","type":"string"},{"internalType":"string","name":"productId","type":"string"},{"internalType":"string","name":"buyer","type":"string"},{"internalType":"string","name":"seller","type":"string"},{"internalType":"string","name":"amount","type":"string"},{"internalType":"string","name":"meetUpLocation","type":"string"},{"internalType":"string","name":"scheduledMeetUpAt","type":"string"},{"internalType":"string","name":"createdAt","type":"string"},{"internalType":"string","name":"status","type":"string"}],"indexed":false,"internalType":"struct ReceiptBook.Receipt","name":"receipt","type":"tuple"}],"name":"ReceiptIssued","type":"event"},{"inputs":[{"components":[{"internalType":"string","name":"transactionId","type":"string"},{"internalType":"string","name":"productId","type":"string"},{"internalType":"string","name":"buyer","type":"string"},{"internalType":"string","name":"seller","type":"string"},{"internalType":"string","name":"amount","type":"string"},{"internalType":"string","name":"meetUpLocation","type":"string"},{"internalType":"string","name":"scheduledMeetUpAt","type":"string"},{"internalType":"string","name":"createdAt","type":"string"},{"internalType":"string","name":"status","type":"string"}],"internalType":"struct ReceiptBook.Receipt","name":"newReceipt","type":"tuple"}],"name":"issueReceipt","outputs":[],"stateMutability":"nonpayable","type":"function"},{"inputs":[{"internalType":"string","name":"","type":"string"}],"name":"receipts","outputs":[{"internalType":"string","name":"transactionId","type":"string"},{"internalType":"string","name":"productId","type":"string"},{"internalType":"string","name":"buyer","type":"string"},{"internalType":"string","name":"seller","type":"string"},{"internalType":"string","name":"amount","type":"string"},{"internalType":"string","name":"meetUpLocation","type":"string"},{"internalType":"string","name":"scheduledMeetUpAt","type":"string"},{"internalType":"string","name":"createdAt","type":"string"},{"internalType":"string","name":"status","type":"string"}],"stateMutability":"view","type":"function"}],"evm":{"bytecode":{"linkReferences":{},"object":"6080604052348015600f57600080fd5b506110e68061001f6000396000f3fe608060405234801561001057600080fd5b50600436106100365760003560e01c806303c044931461003b57806380721bb914610057575b600080fd5b6100556004803603810190610050919061066c565b61008f565b005b610071600480360381019061006c91906107fb565b610107565b604051610086999897969594939291906108c3565b60405180910390f35b8060008280600001906100a2919061099e565b6040516100b0929190610a31565b908152602001604051809103902081816100ca9190610e79565b9050507fbebec81e1729d3d67d8bc56c2274c0d148f71ba293f56808170715bd841325dd816040516100fc919061108e565b60405180910390a150565b60008180516020810182018051848252602083016020850120818352809550505050505060009150905080600001805461014090610a84565b80601f016020809104026020016040519081016040528092919081815260200182805461016c90610a84565b80156101b95780601f1061018e576101008083540402835291602001916101b9565b820191906000526020600020905b81548152906001019060200180831161019c57829003601f168201915b5050505050908060010180546101ce90610a84565b80601f01602080910402602001604051908101604052809291908181526020018280546101fa90610a84565b80156102475780601f1061021c57610100808354040283529160200191610247565b820191906000526020600020905b81548152906001019060200180831161022a57829003601f168201915b50505050509080600201805461025c90610a84565b80601f016020809104026020016040519081016040528092919081815260200182805461028890610a84565b80156102d55780601f106102aa576101008083540402835291602001916102d5565b820191906000526020600020905b8154815290600101906020018083116102b857829003601f168201915b5050505050908060030180546102ea90610a84565b80601f016020809104026020016040519081016040528092919081815260200182805461031690610a84565b80156103635780601f1061033857610100808354040283529160200191610363565b820191906000526020600020905b81548152906001019060200180831161034657829003601f168201915b50505050509080600401805461037890610a84565b80601f01602080910402602001604051908101604052809291908181526020018280546103a490610a84565b80156103f15780601f106103c6576101008083540402835291602001916103f1565b820191906000526020600020905b8154815290600101906020018083116103d457829003601f168201915b50505050509080600501805461040690610a84565b80601f016020809104026020016040519081016040528092919081815260200182805461043290610a84565b801561047f5780601f106104545761010080835404028352916020019161047f565b820191906000526020600020905b81548152906001019060200180831161046257829003601f168201915b50505050509080600601805461049490610a84565b80601f01602080910402602001604051908101604052809291908181526020018280546104c090610a84565b801561050d5780601f106104e25761010080835404028352916020019161050d565b820191906000526020600020905b8154815290600101906020018083116104f057829003601f168201915b50505050509080600701805461052290610a84565b80601f016020809104026020016040519081016040528092919081815260200182805461054e90610a84565b801561059b5780601f106105705761010080835404028352916020019161059b565b820191906000526020600020905b81548152906001019060200180831161057e57829003601f168201915b5050505050908060080180546105b090610a84565b80601f01602080910402602001604051908101604052809291908181526020018280546105dc90610a84565b80156106295780601f106105fe57610100808354040283529160200191610629565b820191906000526020600020905b81548152906001019060200180831161060c57829003601f168201915b5050505050905089565b6000604051905090565b600080fd5b600080fd5b600080fd5b6000610120828403121561066357610662610647565b5b81905092915050565b6000602082840312156106825761068161063d565b5b600082013567ffffffffffffffff8111156106a05761069f610642565b5b6106ac8482850161064c565b91505092915050565b600080fd5b600080fd5b6000601f19601f8301169050919050565b7f4e487b7100000000000000000000000000000000000000000000000000000000600052604160045260246000fd5b610708826106bf565b810181811067ffffffffffffffff82111715610727576107266106d0565b5b80604052505050565b600061073a610633565b905061074682826106ff565b919050565b600067ffffffffffffffff821115610766576107656106d0565b5b61076f826106bf565b9050602081019050919050565b82818337600083830152505050565b600061079e6107998461074b565b610730565b9050828152602081018484840111156107ba576107b96106ba565b5b6107c584828561077c565b509392505050565b600082601f8301126107e2576107e16106b5565b5b81356107f284826020860161078b565b91505092915050565b6000602082840312156108115761081061063d565b5b600082013567ffffffffffffffff81111561082f5761082e610642565b5b61083b848285016107cd565b91505092915050565b600081519050919050565b600082825260208201905092915050565b60005b8381101561087e578082015181840152602081019050610863565b60008484015250505050565b600061089582610844565b61089f818561084f565b93506108af818560208601610860565b6108b8816106bf565b840191505092915050565b60006101208201905081810360008301526108de818c61088a565b905081810360208301526108f2818b61088a565b90508181036040830152610906818a61088a565b9050818103606083015261091a818961088a565b9050818103608083015261092e818861088a565b905081810360a0830152610942818761088a565b905081810360c0830152610956818661088a565b905081810360e083015261096a818561088a565b905081810361010083015261097f818461088a565b90509a9950505050505050505050565b600080fd5b600080fd5b600080fd5b600080833560016020038436030381126109bb576109ba61098f565b5b80840192508235915067ffffffffffffffff8211156109dd576109dc610994565b5b6020830192506001820236038313156109f9576109f8610999565b5b509250929050565b600081905092915050565b6000610a188385610a01565b9350610a2583858461077c565b82840190509392505050565b6000610a3e828486610a0c565b91508190509392505050565b600082905092915050565b7f4e487b7100000000000000000000000000000000000000000000000000000000600052602260045260246000fd5b60006002820490506001821680610a9c57607f821691505b602082108103610aaf57610aae610a55565b5b50919050565b60008190508160005260206000209050919050565b60006020601f8301049050919050565b600082821b905092915050565b600060088302610b177fffffffffffffffffffffffffffffffffffffffffffffffffffffffffffffffff82610ada565b610b218683610ada565b95508019841693508086168417925050509392505050565b6000819050919050565b6000819050919050565b6000610b68610b63610b5e84610b39565b610b43565b610b39565b9050919050565b6000819050919050565b610b8283610b4d565b610b96610b8e82610b6f565b848454610ae7565b825550505050565b600090565b610bab610b9e565b610bb6818484610b79565b505050565b5b81811015610bda57610bcf600082610ba3565b600181019050610bbc565b5050565b601f821115610c1f57610bf081610ab5565b610bf984610aca565b81016020851015610c08578190505b610c1c610c1485610aca565b830182610bbb565b50505b505050565b600082821c905092915050565b6000610c4260001984600802610c24565b1980831691505092915050565b6000610c5b8383610c31565b9150826002028217905092915050565b610c758383610a4a565b67ffffffffffffffff811115610c8e57610c8d6106d0565b5b610c988254610a84565b610ca3828285610bde565b6000601f831160018114610cd25760008415610cc0578287013590505b610cca8582610c4f565b865550610d32565b601f198416610ce086610ab5565b60005b82811015610d0857848901358255600182019150602085019450602081019050610ce3565b86831015610d255784890135610d21601f891682610c31565b8355505b6001600288020188555050505b50505050505050565b610d46838383610c6b565b505050565b6000810160008301610d5d818561099e565b610d68818386610d3b565b505050506001810160208301610d7e818561099e565b610d89818386610d3b565b505050506002810160408301610d9f818561099e565b610daa818386610d3b565b505050506003810160608301610dc0818561099e565b610dcb818386610d3b565b505050506004810160808301610de1818561099e565b610dec818386610d3b565b505050506005810160a08301610e02818561099e565b610e0d818386610d3b565b505050506006810160c08301610e23818561099e565b610e2e818386610d3b565b505050506007810160e08301610e44818561099e565b610e4f818386610d3b565b50505050600881016101008301610e66818561099e565b610e71818386610d3b565b505050505050565b610e838282610d4b565b5050565b600080fd5b600080fd5b600080fd5b60008083356001602003843603038112610eb357610eb2610e91565b5b83810192508235915060208301925067ffffffffffffffff821115610edb57610eda610e87565b5b600182023603831315610ef157610ef0610e8c565b5b509250929050565b600082825260208201905092915050565b6000610f168385610ef9565b9350610f2383858461077c565b610f2c836106bf565b840190509392505050565b60006101208301610f4b6000840184610e96565b8583036000870152610f5e838284610f0a565b92505050610f6f6020840184610e96565b8583036020870152610f82838284610f0a565b92505050610f936040840184610e96565b8583036040870152610fa6838284610f0a565b92505050610fb76060840184610e96565b8583036060870152610fca838284610f0a565b92505050610fdb6080840184610e96565b8583036080870152610fee838284610f0a565b92505050610fff60a0840184610e96565b85830360a0870152611012838284610f0a565b9250505061102360c0840184610e96565b85830360c0870152611036838284610f0a565b9250505061104760e0840184610e96565b85830360e087015261105a838284610f0a565b9250505061106c610100840184610e96565b858303610100870152611080838284610f0a565b925050508091505092915050565b600060208201905081810360008301526110a88184610f37565b90509291505056fea26469706673582212206881d75588886d85f9e0dafa89f99f6d4ff146372f8c6d7680ad5adcc0f0d0e164736f6c634300081c0033","opcodes":"PUSH1 0x80 PUSH1 0x40 MSTORE CALLVALUE DUP1 ISZERO PUSH1 0xF JUMPI PUSH1 0x0 DUP1 REVERT JUMPDEST POP PUSH2 0x10E6 DUP1 PUSH2 0x1F PUSH1 0x0 CODECOPY PUSH1 0x0 RETURN INVALID PUSH1 0x80 PUSH1 0x40 MSTORE CALLVALUE DUP1 ISZERO PUSH2 0x10 JUMPI PUSH1 0x0 DUP1 REVERT JUMPDEST POP PUSH1 0x4 CALLDATASIZE LT PUSH2 0x36 JUMPI PUSH1 0x0 CALLDATALOAD PUSH1 0xE0 SHR DUP1 PUSH4 0x3C04493 EQ PUSH2 0x3B JUMPI DUP1 PUSH4 0x80721BB9 EQ PUSH2 0x57 JUMPI JUMPDEST PUSH1 0x0 DUP1 REVERT JUMPDEST PUSH2 0x55 PUSH1 0x4 DUP1 CALLDATASIZE SUB DUP2 ADD SWAP1 PUSH2 0x50 SWAP2 SWAP1 PUSH2 0x66C JUMP JUMPDEST PUSH2 0x8F JUMP JUMPDEST STOP JUMPDEST PUSH2 0x71 PUSH1 0x4 DUP1 CALLDATASIZE SUB DUP2 ADD SWAP1 PUSH2 0x6C SWAP2 SWAP1 PUSH2 0x7FB JUMP JUMPDEST PUSH2 0x107 JUMP JUMPDEST PUSH1 0x40 MLOAD PUSH2 0x86 SWAP10 SWAP9 SWAP8 SWAP7 SWAP6 SWAP5 SWAP4 SWAP3 SWAP2 SWAP1 PUSH2 0x8C3 JUMP JUMPDEST PUSH1 0x40 MLOAD DUP1 SWAP2 SUB SWAP1 RETURN JUMPDEST DUP1 PUSH1 0x0 DUP3 DUP1 PUSH1 0x0 ADD SWAP1 PUSH2 0xA2 SWAP2 SWAP1 PUSH2 0x99E JUMP JUMPDEST PUSH1 0x40 MLOAD PUSH2 0xB0 SWAP3 SWAP2 SWAP1 PUSH2 0xA31 JUMP JUMPDEST SWAP1 DUP2 MSTORE PUSH1 0x20 ADD PUSH1 0x40 MLOAD DUP1 SWAP2 SUB SWAP1 KECCAK256 DUP2 DUP2 PUSH2 0xCA SWAP2 SWAP1 PUSH2 0xE79 JUMP JUMPDEST SWAP1 POP POP PUSH32 0xBEBEC81E1729D3D67D8BC56C2274C0D148F71BA293F56808170715BD841325DD DUP2 PUSH1 0x40 MLOAD PUSH2 0xFC SWAP2 SWAP1 PUSH2 0x108E JUMP JUMPDEST PUSH1 0x40 MLOAD DUP1 SWAP2 SUB SWAP1 LOG1 POP JUMP JUMPDEST PUSH1 0x0 DUP2 DUP1 MLOAD PUSH1 0x20 DUP2 ADD DUP3 ADD DUP1 MLOAD DUP5 DUP3 MSTORE PUSH1 0x20 DUP4 ADD PUSH1 0x20 DUP6 ADD KECCAK256 DUP2 DUP4 MSTORE DUP1 SWAP6 POP POP POP POP POP POP PUSH1 0x0 SWAP2 POP SWAP1 POP DUP1 PUSH1 0x0 ADD DUP1 SLOAD PUSH2 0x140 SWAP1 PUSH2 0xA84 JUMP JUMPDEST DUP1 PUSH1 0x1F ADD PUSH1 0x20 DUP1 SWAP2 DIV MUL PUSH1 0x20 ADD PUSH1 0x40 MLOAD SWAP1 DUP2 ADD PUSH1 0x40 MSTORE DUP1 SWAP3 SWAP2 SWAP1 DUP2 DUP2 MSTORE PUSH1 0x20 ADD DUP3 DUP1 SLOAD PUSH2 0x16C SWAP1 PUSH2 0xA84 JUMP JUMPDEST DUP1 ISZERO PUSH2 0x1B9 JUMPI DUP1 PUSH1 0x1F LT PUSH2 0x18E JUMPI PUSH2 0x100 DUP1 DUP4 SLOAD DIV MUL DUP4 MSTORE SWAP2 PUSH1 0x20 ADD SWAP2 PUSH2 0x1B9 JUMP JUMPDEST DUP3 ADD SWAP2 SWAP1 PUSH1 0x0 MSTORE PUSH1 0x20 PUSH1 0x0 KECCAK256 SWAP1 JUMPDEST DUP2 SLOAD DUP2 MSTORE SWAP1 PUSH1 0x1 ADD SWAP1 PUSH1 0x20 ADD DUP1 DUP4 GT PUSH2 0x19C JUMPI DUP3 SWAP1 SUB PUSH1 0x1F AND DUP3 ADD SWAP2 JUMPDEST POP POP POP POP POP SWAP1 DUP1 PUSH1 0x1 ADD DUP1 SLOAD PUSH2 0x1CE SWAP1 PUSH2 0xA84 JUMP JUMPDEST DUP1 PUSH1 0x1F ADD PUSH1 0x20 DUP1 SWAP2 DIV MUL PUSH1 0x20 ADD PUSH1 0x40 MLOAD SWAP1 DUP2 ADD PUSH1 0x40 MSTORE DUP1 SWAP3 SWAP2 SWAP1 DUP2 DUP2 MSTORE PUSH1 0x20 ADD DUP3 DUP1 SLOAD PUSH2 0x1FA SWAP1 PUSH2 0xA84 JUMP JUMPDEST DUP1 ISZERO PUSH2 0x247 JUMPI DUP1 PUSH1 0x1F LT PUSH2 0x21C JUMPI PUSH2 0x100 DUP1 DUP4 SLOAD DIV MUL DUP4 MSTORE SWAP2 PUSH1 0x20 ADD SWAP2 PUSH2 0x247 JUMP JUMPDEST DUP3 ADD SWAP2 SWAP1 PUSH1 0x0 MSTORE PUSH1 0x20 PUSH1 0x0 KECCAK256 SWAP1 JUMPDEST DUP2 SLOAD DUP2 MSTORE SWAP1 PUSH1 0x1 ADD SWAP1 PUSH1 0x20 ADD DUP1 DUP4 GT PUSH2 0x22A JUMPI DUP3 SWAP1 SUB PUSH1 0x1F AND DUP3 ADD SWAP2 JUMPDEST POP POP POP POP POP SWAP1 DUP1 PUSH1 0x2 ADD DUP1 SLOAD PUSH2 0x25C SWAP1 PUSH2 0xA84 JUMP JUMPDEST DUP1 PUSH1 0x1F ADD PUSH1 0x20 DUP1 SWAP2 DIV MUL PUSH1 0x20 ADD PUSH1 0x40 MLOAD SWAP1 DUP2 ADD PUSH1 0x40 MSTORE DUP1 SWAP3 SWAP2 SWAP1 DUP2 DUP2 MSTORE PUSH1 0x20 ADD DUP3 DUP1 SLOAD PUSH2 0x288 SWAP1 PUSH2 0xA84 JUMP JUMPDEST DUP1 ISZERO PUSH2 0x2D5 JUMPI DUP1 PUSH1 0x1F LT PUSH2 0x2AA JUMPI PUSH2 0x100 DUP1 DUP4 SLOAD DIV MUL DUP4 MSTORE SWAP2 PUSH1 0x20 ADD SWAP2 PUSH2 0x2D5 JUMP JUMPDEST DUP3 ADD SWAP2 SWAP1 PUSH1 0x0 MSTORE PUSH1 0x20 PUSH1 0x0 KECCAK256 SWAP1 JUMPDEST DUP2 SLOAD DUP2 MSTORE SWAP1 PUSH1 0x1 ADD SWAP1 PUSH1 0x20 ADD DUP1 DUP4 GT PUSH2 0x2B8 JUMPI DUP3 SWAP1 SUB PUSH1 0x1F AND DUP3 ADD SWAP2 JUMPDEST POP POP POP POP POP SWAP1 DUP1 PUSH1 0x3 ADD DUP1 SLOAD PUSH2 0x2EA SWAP1 PUSH2 0xA84 JUMP JUMPDEST DUP1 PUSH1 0x1F ADD PUSH1 0x20 DUP1 SWAP2 DIV MUL PUSH1 0x20 ADD PUSH1 0x40 MLOAD SWAP1 DUP2 ADD PUSH1 0x40 MSTORE DUP1 SWAP3 SWAP2 SWAP1 DUP2 DUP2 MSTORE PUSH1 0x20 ADD DUP3 DUP1 SLOAD PUSH2 0x316 SWAP1 PUSH2 0xA84 JUMP JUMPDEST DUP1 ISZERO PUSH2 0x363 JUMPI DUP1 PUSH1 0x1F LT PUSH2 0x338 JUMPI PUSH2 0x100 DUP1 DUP4 SLOAD DIV MUL DUP4 MSTORE SWAP2 PUSH1 0x20 ADD SWAP2 PUSH2 0x363 JUMP JUMPDEST DUP3 ADD SWAP2 SWAP1 PUSH1 0x0 MSTORE PUSH1 0x20 PUSH1 0x0 KECCAK256 SWAP1 JUMPDEST DUP2 SLOAD DUP2 MSTORE SWAP1 PUSH1 0x1 ADD SWAP1 PUSH1 0x20 ADD DUP1 DUP4 GT PUSH2 0x346 JUMPI DUP3 SWAP1 SUB PUSH1 0x1F AND DUP3 ADD SWAP2 JUMPDEST POP POP POP POP POP SWAP1 DUP1 PUSH1 0x4 ADD DUP1 SLOAD PUSH2 0x378 SWAP1 PUSH2 0xA84 JUMP JUMPDEST DUP1 PUSH1 0x1F ADD PUSH1 0x20 DUP1 SWAP2 DIV MUL PUSH1 0x20 ADD PUSH1 0x40 MLOAD SWAP1 DUP2 ADD PUSH1 0x40 MSTORE DUP1 SWAP3 SWAP2 SWAP1 DUP2 DUP2 MSTORE PUSH1 0x20 ADD DUP3 DUP1 SLOAD PUSH2 0x3A4 SWAP1 PUSH2 0xA84 JUMP JUMPDEST DUP1 ISZERO PUSH2 0x3F1 JUMPI DUP1 PUSH1 0x1F LT PUSH2 0x3C6 JUMPI PUSH2 0x100 DUP1 DUP4 SLOAD DIV MUL DUP4 MSTORE SWAP2 PUSH1 0x20 ADD SWAP2 PUSH2 0x3F1 JUMP JUMPDEST DUP3 ADD SWAP2 SWAP1 PUSH1 0x0 MSTORE PUSH1 0x20 PUSH1 0x0 KECCAK256 SWAP1 JUMPDEST DUP2 SLOAD DUP2 MSTORE SWAP1 PUSH1 0x1 ADD SWAP1 PUSH1 0x20 ADD DUP1 DUP4 GT PUSH2 0x3D4 JUMPI DUP3 SWAP1 SUB PUSH1 0x1F AND DUP3 ADD SWAP2 JUMPDEST POP POP POP POP POP SWAP1 DUP1 PUSH1 0x5 ADD DUP1 SLOAD PUSH2 0x406 SWAP1 PUSH2 0xA84 JUMP JUMPDEST DUP1 PUSH1 0x1F ADD PUSH1 0x20 DUP1 SWAP2 DIV MUL PUSH1 0x20 ADD PUSH1 0x40 MLOAD SWAP1 DUP2 ADD PUSH1 0x40 MSTORE DUP1 SWAP3 SWAP2 SWAP1 DUP2 DUP2 MSTORE PUSH1 0x20 ADD DUP3 DUP1 SLOAD PUSH2 0x432 SWAP1 PUSH2 0xA84 JUMP JUMPDEST DUP1 ISZERO PUSH2 0x47F JUMPI DUP1 PUSH1 0x1F LT PUSH2 0x454 JUMPI PUSH2 0x100 DUP1 DUP4 SLOAD DIV MUL DUP4 MSTORE SWAP2 PUSH1 0x20 ADD SWAP2 PUSH2 0x47F JUMP JUMPDEST DUP3 ADD SWAP2 SWAP1 PUSH1 0x0 MSTORE PUSH1 0x20 PUSH1 0x0 KECCAK256 SWAP1 JUMPDEST DUP2 SLOAD DUP2 MSTORE SWAP1 PUSH1 0x1 ADD SWAP1 PUSH1 0x20 ADD DUP1 DUP4 GT PUSH2 0x462 JUMPI DUP3 SWAP1 SUB PUSH1 0x1F AND DUP3 ADD SWAP2 JUMPDEST POP POP POP POP POP SWAP1 DUP1 PUSH1 0x6 ADD DUP1 SLOAD PUSH2 0x494 SWAP1 PUSH2 0xA84 JUMP JUMPDEST DUP1 PUSH1 0x1F ADD PUSH1 0x20 DUP1 SWAP2 DIV MUL PUSH1 0x20 ADD PUSH1 0x40 MLOAD SWAP1 DUP2 ADD PUSH1 0x40 MSTORE DUP1 SWAP3 SWAP2 SWAP1 DUP2 DUP2 MSTORE PUSH1 0x20 ADD DUP3 DUP1 SLOAD PUSH2 0x4C0 SWAP1 PUSH2 0xA84 JUMP JUMPDEST DUP1 ISZERO PUSH2 0x50D JUMPI DUP1 PUSH1 0x1F LT PUSH2 0x4E2 JUMPI PUSH2 0x100 DUP1 DUP4 SLOAD DIV MUL DUP4 MSTORE SWAP2 PUSH1 0x20 ADD SWAP2 PUSH2 0x50D JUMP JUMPDEST DUP3 ADD SWAP2 SWAP1 PUSH1 0x0 MSTORE PUSH1 0x20 PUSH1 0x0 KECCAK256 SWAP1 JUMPDEST DUP2 SLOAD DUP2 MSTORE SWAP1 PUSH1 0x1 ADD SWAP1 PUSH1 0x20 ADD DUP1 DUP4 GT PUSH2 0x4F0 JUMPI DUP3 SWAP1 SUB PUSH1 0x1F AND DUP3 ADD SWAP2 JUMPDEST POP POP POP POP POP SWAP1 DUP1 PUSH1 0x7 ADD DUP1 SLOAD PUSH2 0x522 SWAP1 PUSH2 0xA84 JUMP JUMPDEST DUP1 PUSH1 0x1F ADD PUSH1 0x20 DUP1 SWAP2 DIV MUL PUSH1 0x20 ADD PUSH1 0x40 MLOAD SWAP1 DUP2 ADD PUSH1 0x40 MSTORE DUP1 SWAP3 SWAP2 SWAP1 DUP2 DUP2 MSTORE PUSH1 0x20 ADD DUP3 DUP1 SLOAD PUSH2 0x54E SWAP1 PUSH2 0xA84 JUMP JUMPDEST DUP1 ISZERO PUSH2 0x59B JUMPI DUP1 PUSH1 0x1F LT PUSH2 0x570 JUMPI PUSH2 0x100 DUP1 DUP4 SLOAD DIV MUL DUP4 MSTORE SWAP2 PUSH1 0x20 ADD SWAP2 PUSH2 0x59B JUMP JUMPDEST DUP3 ADD SWAP2 SWAP1 PUSH1 0x0 MSTORE PUSH1 0x20 PUSH1 0x0 KECCAK256 SWAP1 JUMPDEST DUP2 SLOAD DUP2 MSTORE SWAP1 PUSH1 0x1 ADD SWAP1 PUSH1 0x20 ADD DUP1 DUP4 GT PUSH2 0x57E JUMPI DUP3 SWAP1 SUB PUSH1 0x1F AND DUP3 ADD SWAP2 JUMPDEST POP POP POP POP POP SWAP1 DUP1 PUSH1 0x8 ADD DUP1 SLOAD PUSH2 0x5B0 SWAP1 PUSH2 0xA84 JUMP JUMPDEST DUP1 PUSH1 0x1F ADD PUSH1 0x20 DUP1 SWAP2 DIV MUL PUSH1 0x20 ADD PUSH1 0x40 MLOAD SWAP1 DUP2 ADD PUSH1 0x40 MSTORE DUP1 SWAP3 SWAP2 SWAP1 DUP2 DUP2 MSTORE PUSH1 0x20 ADD DUP3 DUP1 SLOAD PUSH2 0x5DC SWAP1 PUSH2 0xA84 JUMP JUMPDEST DUP1 ISZERO PUSH2 0x629 JUMPI DUP1 PUSH1 0x1F LT PUSH2 0x5FE JUMPI PUSH2 0x100 DUP1 DUP4 SLOAD DIV MUL DUP4 MSTORE SWAP2 PUSH1 0x20 ADD SWAP2 PUSH2 0x629 JUMP JUMPDEST DUP3 ADD SWAP2 SWAP1 PUSH1 0x0 MSTORE PUSH1 0x20 PUSH1 0x0 KECCAK256 SWAP1 JUMPDEST DUP2 SLOAD DUP2 MSTORE SWAP1 PUSH1 0x1 ADD SWAP1 PUSH1 0x20 ADD DUP1 DUP4 GT PUSH2 0x60C JUMPI DUP3 SWAP1 SUB PUSH1 0x1F AND DUP3 ADD SWAP2 JUMPDEST POP POP POP POP POP SWAP1 POP DUP10 JUMP JUMPDEST PUSH1 0x0 PUSH1 0x40 MLOAD SWAP1 POP SWAP1 JUMP JUMPDEST PUSH1 0x0 DUP1 REVERT JUMPDEST PUSH1 0x0 DUP1 REVERT JUMPDEST PUSH1 0x0 DUP1 REVERT JUMPDEST PUSH1 0x0 PUSH2 0x120 DUP3 DUP5 SUB SLT ISZERO PUSH2 0x663 JUMPI PUSH2 0x662 PUSH2 0x647 JUMP JUMPDEST JUMPDEST DUP2 SWAP1 POP SWAP3 SWAP2 POP POP JUMP JUMPDEST PUSH1 0x0 PUSH1 0x20 DUP3 DUP5 SUB SLT ISZERO PUSH2 0x682 JUMPI PUSH2 0x681 PUSH2 0x63D JUMP JUMPDEST JUMPDEST PUSH1 0x0 DUP3 ADD CALLDATALOAD PUSH8 0xFFFFFFFFFFFFFFFF DUP2 GT ISZERO PUSH2 0x6A0 JUMPI PUSH2 0x69F PUSH2 0x642 JUMP JUMPDEST JUMPDEST PUSH2 0x6AC DUP5 DUP3 DUP6 ADD PUSH2 0x64C JUMP JUMPDEST SWAP2 POP POP SWAP3 SWAP2 POP POP JUMP JUMPDEST PUSH1 0x0 DUP1 REVERT JUMPDEST PUSH1 0x0 DUP1 REVERT JUMPDEST PUSH1 0x0 PUSH1 0x1F NOT PUSH1 0x1F DUP4 ADD AND SWAP1 POP SWAP2 SWAP1 POP JUMP JUMPDEST PUSH32 0x4E487B7100000000000000000000000000000000000000000000000000000000 PUSH1 0x0 MSTORE PUSH1 0x41 PUSH1 0x4 MSTORE PUSH1 0x24 PUSH1 0x0 REVERT JUMPDEST PUSH2 0x708 DUP3 PUSH2 0x6BF JUMP JUMPDEST DUP2 ADD DUP2 DUP2 LT PUSH8 0xFFFFFFFFFFFFFFFF DUP3 GT OR ISZERO PUSH2 0x727 JUMPI PUSH2 0x726 PUSH2 0x6D0 JUMP JUMPDEST JUMPDEST DUP1 PUSH1 0x40 MSTORE POP POP POP JUMP JUMPDEST PUSH1 0x0 PUSH2 0x73A PUSH2 0x633 JUMP JUMPDEST SWAP1 POP PUSH2 0x746 DUP3 DUP3 PUSH2 0x6FF JUMP JUMPDEST SWAP2 SWAP1 POP JUMP JUMPDEST PUSH1 0x0 PUSH8 0xFFFFFFFFFFFFFFFF DUP3 GT ISZERO PUSH2 0x766 JUMPI PUSH2 0x765 PUSH2 0x6D0 JUMP JUMPDEST JUMPDEST PUSH2 0x76F DUP3 PUSH2 0x6BF JUMP JUMPDEST SWAP1 POP PUSH1 0x20 DUP2 ADD SWAP1 POP SWAP2 SWAP1 POP JUMP JUMPDEST DUP3 DUP2 DUP4 CALLDATACOPY PUSH1 0x0 DUP4 DUP4 ADD MSTORE POP POP POP JUMP JUMPDEST PUSH1 0x0 PUSH2 0x79E PUSH2 0x799 DUP5 PUSH2 0x74B JUMP JUMPDEST PUSH2 0x730 JUMP JUMPDEST SWAP1 POP DUP3 DUP2 MSTORE PUSH1 0x20 DUP2 ADD DUP5 DUP5 DUP5 ADD GT ISZERO PUSH2 0x7BA JUMPI PUSH2 0x7B9 PUSH2 0x6BA JUMP JUMPDEST JUMPDEST PUSH2 0x7C5 DUP5 DUP3 DUP6 PUSH2 0x77C JUMP JUMPDEST POP SWAP4 SWAP3 POP POP POP JUMP JUMPDEST PUSH1 0x0 DUP3 PUSH1 0x1F DUP4 ADD SLT PUSH2 0x7E2 JUMPI PUSH2 0x7E1 PUSH2 0x6B5 JUMP JUMPDEST JUMPDEST DUP2 CALLDATALOAD PUSH2 0x7F2 DUP5 DUP3 PUSH1 0x20 DUP7 ADD PUSH2 0x78B JUMP JUMPDEST SWAP2 POP POP SWAP3 SWAP2 POP POP JUMP JUMPDEST PUSH1 0x0 PUSH1 0x20 DUP3 DUP5 SUB SLT ISZERO PUSH2 0x811 JUMPI PUSH2 0x810 PUSH2 0x63D JUMP JUMPDEST JUMPDEST PUSH1 0x0 DUP3 ADD CALLDATALOAD PUSH8 0xFFFFFFFFFFFFFFFF DUP2 GT ISZERO PUSH2 0x82F JUMPI PUSH2 0x82E PUSH2 0x642 JUMP JUMPDEST JUMPDEST PUSH2 0x83B DUP5 DUP3 DUP6 ADD PUSH2 0x7CD JUMP JUMPDEST SWAP2 POP POP SWAP3 SWAP2 POP POP JUMP JUMPDEST PUSH1 0x0 DUP2 MLOAD SWAP1 POP SWAP2 SWAP1 POP JUMP JUMPDEST PUSH1 0x0 DUP3 DUP3 MSTORE PUSH1 0x20 DUP3 ADD SWAP1 POP SWAP3 SWAP2 POP POP JUMP JUMPDEST PUSH1 0x0 JUMPDEST DUP4 DUP2 LT ISZERO PUSH2 0x87E JUMPI DUP1 DUP3 ADD MLOAD DUP2 DUP5 ADD MSTORE PUSH1 0x20 DUP2 ADD SWAP1 POP PUSH2 0x863 JUMP JUMPDEST PUSH1 0x0 DUP5 DUP5 ADD MSTORE POP POP POP POP JUMP JUMPDEST PUSH1 0x0 PUSH2 0x895 DUP3 PUSH2 0x844 JUMP JUMPDEST PUSH2 0x89F DUP2 DUP6 PUSH2 0x84F JUMP JUMPDEST SWAP4 POP PUSH2 0x8AF DUP2 DUP6 PUSH1 0x20 DUP7 ADD PUSH2 0x860 JUMP JUMPDEST PUSH2 0x8B8 DUP2 PUSH2 0x6BF JUMP JUMPDEST DUP5 ADD SWAP2 POP POP SWAP3 SWAP2 POP POP JUMP JUMPDEST PUSH1 0x0 PUSH2 0x120 DUP3 ADD SWAP1 POP DUP2 DUP2 SUB PUSH1 0x0 DUP4 ADD MSTORE PUSH2 0x8DE DUP2 DUP13 PUSH2 0x88A JUMP JUMPDEST SWAP1 POP DUP2 DUP2 SUB PUSH1 0x20 DUP4 ADD MSTORE PUSH2 0x8F2 DUP2 DUP12 PUSH2 0x88A JUMP JUMPDEST SWAP1 POP DUP2 DUP2 SUB PUSH1 0x40 DUP4 ADD MSTORE PUSH2 0x906 DUP2 DUP11 PUSH2 0x88A JUMP JUMPDEST SWAP1 POP DUP2 DUP2 SUB PUSH1 0x60 DUP4 ADD MSTORE PUSH2 0x91A DUP2 DUP10 PUSH2 0x88A JUMP JUMPDEST SWAP1 POP DUP2 DUP2 SUB PUSH1 0x80 DUP4 ADD MSTORE PUSH2 0x92E DUP2 DUP9 PUSH2 0x88A JUMP JUMPDEST SWAP1 POP DUP2 DUP2 SUB PUSH1 0xA0 DUP4 ADD MSTORE PUSH2 0x942 DUP2 DUP8 PUSH2 0x88A JUMP JUMPDEST SWAP1 POP DUP2 DUP2 SUB PUSH1 0xC0 DUP4 ADD MSTORE PUSH2 0x956 DUP2 DUP7 PUSH2 0x88A JUMP JUMPDEST SWAP1 POP DUP2 DUP2 SUB PUSH1 0xE0 DUP4 ADD MSTORE PUSH2 0x96A DUP2 DUP6 PUSH2 0x88A JUMP JUMPDEST SWAP1 POP DUP2 DUP2 SUB PUSH2 0x100 DUP4 ADD MSTORE PUSH2 0x97F DUP2 DUP5 PUSH2 0x88A JUMP JUMPDEST SWAP1 POP SWAP11 SWAP10 POP POP POP POP POP POP POP POP POP POP JUMP JUMPDEST PUSH1 0x0 DUP1 REVERT JUMPDEST PUSH1 0x0 DUP1 REVERT JUMPDEST PUSH1 0x0 DUP1 REVERT JUMPDEST PUSH1 0x0 DUP1 DUP4 CALLDATALOAD PUSH1 0x1 PUSH1 0x20 SUB DUP5 CALLDATASIZE SUB SUB DUP2 SLT PUSH2 0x9BB JUMPI PUSH2 0x9BA PUSH2 0x98F JUMP JUMPDEST JUMPDEST DUP1 DUP5 ADD SWAP3 POP DUP3 CALLDATALOAD SWAP2 POP PUSH8 0xFFFFFFFFFFFFFFFF DUP3 GT ISZERO PUSH2 0x9DD JUMPI PUSH2 0x9DC PUSH2 0x994 JUMP JUMPDEST JUMPDEST PUSH1 0x20 DUP4 ADD SWAP3 POP PUSH1 0x1 DUP3 MUL CALLDATASIZE SUB DUP4 SGT ISZERO PUSH2 0x9F9 JUMPI PUSH2 0x9F8 PUSH2 0x999 JUMP JUMPDEST JUMPDEST POP SWAP3 POP SWAP3 SWAP1 POP JUMP JUMPDEST PUSH1 0x0 DUP2 SWAP1 POP SWAP3 SWAP2 POP POP JUMP JUMPDEST PUSH1 0x0 PUSH2 0xA18 DUP4 DUP6 PUSH2 0xA01 JUMP JUMPDEST SWAP4 POP PUSH2 0xA25 DUP4 DUP6 DUP5 PUSH2 0x77C JUMP JUMPDEST DUP3 DUP5 ADD SWAP1 POP SWAP4 SWAP3 POP POP POP JUMP JUMPDEST PUSH1 0x0 PUSH2 0xA3E DUP3 DUP5 DUP7 PUSH2 0xA0C JUMP JUMPDEST SWAP2 POP DUP2 SWAP1 POP SWAP4 SWAP3 POP POP POP JUMP JUMPDEST PUSH1 0x0 DUP3 SWAP1 POP SWAP3 SWAP2 POP POP JUMP JUMPDEST PUSH32 0x4E487B7100000000000000000000000000000000000000000000000000000000 PUSH1 0x0 MSTORE PUSH1 0x22 PUSH1 0x4 MSTORE PUSH1 0x24 PUSH1 0x0 REVERT JUMPDEST PUSH1 0x0 PUSH1 0x2 DUP3 DIV SWAP1 POP PUSH1 0x1 DUP3 AND DUP1 PUSH2 0xA9C JUMPI PUSH1 0x7F DUP3 AND SWAP2 POP JUMPDEST PUSH1 0x20 DUP3 LT DUP2 SUB PUSH2 0xAAF JUMPI PUSH2 0xAAE PUSH2 0xA55 JUMP JUMPDEST JUMPDEST POP SWAP2 SWAP1 POP JUMP JUMPDEST PUSH1 0x0 DUP2 SWAP1 POP DUP2 PUSH1 0x0 MSTORE PUSH1 0x20 PUSH1 0x0 KECCAK256 SWAP1 POP SWAP2 SWAP1 POP JUMP JUMPDEST PUSH1 0x0 PUSH1 0x20 PUSH1 0x1F DUP4 ADD DIV SWAP1 POP SWAP2 SWAP1 POP JUMP JUMPDEST PUSH1 0x0 DUP3 DUP3 SHL SWAP1 POP SWAP3 SWAP2 POP POP JUMP JUMPDEST PUSH1 0x0 PUSH1 0x8 DUP4 MUL PUSH2 0xB17 PUSH32 0xFFFFFFFFFFFFFFFFFFFFFFFFFFFFFFFFFFFFFFFFFFFFFFFFFFFFFFFFFFFFFFFF DUP3 PUSH2 0xADA JUMP JUMPDEST PUSH2 0xB21 DUP7 DUP4 PUSH2 0xADA JUMP JUMPDEST SWAP6 POP DUP1 NOT DUP5 AND SWAP4 POP DUP1 DUP7 AND DUP5 OR SWAP3 POP POP POP SWAP4 SWAP3 POP POP POP JUMP JUMPDEST PUSH1 0x0 DUP2 SWAP1 POP SWAP2 SWAP1 POP JUMP JUMPDEST PUSH1 0x0 DUP2 SWAP1 POP SWAP2 SWAP1 POP JUMP JUMPDEST PUSH1 0x0 PUSH2 0xB68 PUSH2 0xB63 PUSH2 0xB5E DUP5 PUSH2 0xB39 JUMP JUMPDEST PUSH2 0xB43 JUMP JUMPDEST PUSH2 0xB39 JUMP JUMPDEST SWAP1 POP SWAP2 SWAP1 POP JUMP JUMPDEST PUSH1 0x0 DUP2 SWAP1 POP SWAP2 SWAP1 POP JUMP JUMPDEST PUSH2 0xB82 DUP4 PUSH2 0xB4D JUMP JUMPDEST PUSH2 0xB96 PUSH2 0xB8E DUP3 PUSH2 0xB6F JUMP JUMPDEST DUP5 DUP5 SLOAD PUSH2 0xAE7 JUMP JUMPDEST DUP3 SSTORE POP POP POP POP JUMP JUMPDEST PUSH1 0x0 SWAP1 JUMP JUMPDEST PUSH2 0xBAB PUSH2 0xB9E JUMP JUMPDEST PUSH2 0xBB6 DUP2 DUP5 DUP5 PUSH2 0xB79 JUMP JUMPDEST POP POP POP JUMP JUMPDEST JUMPDEST DUP2 DUP2 LT ISZERO PUSH2 0xBDA JUMPI PUSH2 0xBCF PUSH1 0x0 DUP3 PUSH2 0xBA3 JUMP JUMPDEST PUSH1 0x1 DUP2 ADD SWAP1 POP PUSH2 0xBBC JUMP JUMPDEST POP POP JUMP JUMPDEST PUSH1 0x1F DUP3 GT ISZERO PUSH2 0xC1F JUMPI PUSH2 0xBF0 DUP2 PUSH2 0xAB5 JUMP JUMPDEST PUSH2 0xBF9 DUP5 PUSH2 0xACA JUMP JUMPDEST DUP2 ADD PUSH1 0x20 DUP6 LT ISZERO PUSH2 0xC08 JUMPI DUP2 SWAP1 POP JUMPDEST PUSH2 0xC1C PUSH2 0xC14 DUP6 PUSH2 0xACA JUMP JUMPDEST DUP4 ADD DUP3 PUSH2 0xBBB JUMP JUMPDEST POP POP JUMPDEST POP POP POP JUMP JUMPDEST PUSH1 0x0 DUP3 DUP3 SHR SWAP1 POP SWAP3 SWAP2 POP POP JUMP JUMPDEST PUSH1 0x0 PUSH2 0xC42 PUSH1 0x0 NOT DUP5 PUSH1 0x8 MUL PUSH2 0xC24 JUMP JUMPDEST NOT DUP1 DUP4 AND SWAP2 POP POP SWAP3 SWAP2 POP POP JUMP JUMPDEST PUSH1 0x0 PUSH2 0xC5B DUP4 DUP4 PUSH2 0xC31 JUMP JUMPDEST SWAP2 POP DUP3 PUSH1 0x2 MUL DUP3 OR SWAP1 POP SWAP3 SWAP2 POP POP JUMP JUMPDEST PUSH2 0xC75 DUP4 DUP4 PUSH2 0xA4A JUMP JUMPDEST PUSH8 0xFFFFFFFFFFFFFFFF DUP2 GT ISZERO PUSH2 0xC8E JUMPI PUSH2 0xC8D PUSH2 0x6D0 JUMP JUMPDEST JUMPDEST PUSH2 0xC98 DUP3 SLOAD PUSH2 0xA84 JUMP JUMPDEST PUSH2 0xCA3 DUP3 DUP3 DUP6 PUSH2 0xBDE JUMP JUMPDEST PUSH1 0x0 PUSH1 0x1F DUP4 GT PUSH1 0x1 DUP2 EQ PUSH2 0xCD2 JUMPI PUSH1 0x0 DUP5 ISZERO PUSH2 0xCC0 JUMPI DUP3 DUP8 ADD CALLDATALOAD SWAP1 POP JUMPDEST PUSH2 0xCCA DUP6 DUP3 PUSH2 0xC4F JUMP JUMPDEST DUP7 SSTORE POP PUSH2 0xD32 JUMP JUMPDEST PUSH1 0x1F NOT DUP5 AND PUSH2 0xCE0 DUP7 PUSH2 0xAB5 JUMP JUMPDEST PUSH1 0x0 JUMPDEST DUP3 DUP2 LT ISZERO PUSH2 0xD08 JUMPI DUP5 DUP10 ADD CALLDATALOAD DUP3 SSTORE PUSH1 0x1 DUP3 ADD SWAP2 POP PUSH1 0x20 DUP6 ADD SWAP5 POP PUSH1 0x20 DUP2 ADD SWAP1 POP PUSH2 0xCE3 JUMP JUMPDEST DUP7 DUP4 LT ISZERO PUSH2 0xD25 JUMPI DUP5 DUP10 ADD CALLDATALOAD PUSH2 0xD21 PUSH1 0x1F DUP10 AND DUP3 PUSH2 0xC31 JUMP JUMPDEST DUP4 SSTORE POP JUMPDEST PUSH1 0x1 PUSH1 0x2 DUP9 MUL ADD DUP9 SSTORE POP POP POP JUMPDEST POP POP POP POP POP POP POP JUMP JUMPDEST PUSH2 0xD46 DUP4 DUP4 DUP4 PUSH2 0xC6B JUMP JUMPDEST POP POP POP JUMP JUMPDEST PUSH1 0x0 DUP2 ADD PUSH1 0x0 DUP4 ADD PUSH2 0xD5D DUP2 DUP6 PUSH2 0x99E JUMP JUMPDEST PUSH2 0xD68 DUP2 DUP4 DUP7 PUSH2 0xD3B JUMP JUMPDEST POP POP POP POP PUSH1 0x1 DUP2 ADD PUSH1 0x20 DUP4 ADD PUSH2 0xD7E DUP2 DUP6 PUSH2 0x99E JUMP JUMPDEST PUSH2 0xD89 DUP2 DUP4 DUP7 PUSH2 0xD3B JUMP JUMPDEST POP POP POP POP PUSH1 0x2 DUP2 ADD PUSH1 0x40 DUP4 ADD PUSH2 0xD9F DUP2 DUP6 PUSH2 0x99E JUMP JUMPDEST PUSH2 0xDAA DUP2 DUP4 DUP7 PUSH2 0xD3B JUMP JUMPDEST POP POP POP POP PUSH1 0x3 DUP2 ADD PUSH1 0x60 DUP4 ADD PUSH2 0xDC0 DUP2 DUP6 PUSH2 0x99E JUMP JUMPDEST PUSH2 0xDCB DUP2 DUP4 DUP7 PUSH2 0xD3B JUMP JUMPDEST POP POP POP POP PUSH1 0x4 DUP2 ADD PUSH1 0x80 DUP4 ADD PUSH2 0xDE1 DUP2 DUP6 PUSH2 0x99E JUMP JUMPDEST PUSH2 0xDEC DUP2 DUP4 DUP7 PUSH2 0xD3B JUMP JUMPDEST POP POP POP POP PUSH1 0x5 DUP2 ADD PUSH1 0xA0 DUP4 ADD PUSH2 0xE02 DUP2 DUP6 PUSH2 0x99E JUMP JUMPDEST PUSH2 0xE0D DUP2 DUP4 DUP7 PUSH2 0xD3B JUMP JUMPDEST POP POP POP POP PUSH1 0x6 DUP2 ADD PUSH1 0xC0 DUP4 ADD PUSH2 0xE23 DUP2 DUP6 PUSH2 0x99E JUMP JUMPDEST PUSH2 0xE2E DUP2 DUP4 DUP7 PUSH2 0xD3B JUMP JUMPDEST POP POP POP POP PUSH1 0x7 DUP2 ADD PUSH1 0xE0 DUP4 ADD PUSH2 0xE44 DUP2 DUP6 PUSH2 0x99E JUMP JUMPDEST PUSH2 0xE4F DUP2 DUP4 DUP7 PUSH2 0xD3B JUMP JUMPDEST POP POP POP POP PUSH1 0x8 DUP2 ADD PUSH2 0x100 DUP4 ADD PUSH2 0xE66 DUP2 DUP6 PUSH2 0x99E JUMP JUMPDEST PUSH2 0xE71 DUP2 DUP4 DUP7 PUSH2 0xD3B JUMP JUMPDEST POP POP POP POP POP POP JUMP JUMPDEST PUSH2 0xE83 DUP3 DUP3 PUSH2 0xD4B JUMP JUMPDEST POP POP JUMP JUMPDEST PUSH1 0x0 DUP1 REVERT JUMPDEST PUSH1 0x0 DUP1 REVERT JUMPDEST PUSH1 0x0 DUP1 REVERT JUMPDEST PUSH1 0x0 DUP1 DUP4 CALLDATALOAD PUSH1 0x1 PUSH1 0x20 SUB DUP5 CALLDATASIZE SUB SUB DUP2 SLT PUSH2 0xEB3 JUMPI PUSH2 0xEB2 PUSH2 0xE91 JUMP JUMPDEST JUMPDEST DUP4 DUP2 ADD SWAP3 POP DUP3 CALLDATALOAD SWAP2 POP PUSH1 0x20 DUP4 ADD SWAP3 POP PUSH8 0xFFFFFFFFFFFFFFFF DUP3 GT ISZERO PUSH2 0xEDB JUMPI PUSH2 0xEDA PUSH2 0xE87 JUMP JUMPDEST JUMPDEST PUSH1 0x1 DUP3 MUL CALLDATASIZE SUB DUP4 SGT ISZERO PUSH2 0xEF1 JUMPI PUSH2 0xEF0 PUSH2 0xE8C JUMP JUMPDEST JUMPDEST POP SWAP3 POP SWAP3 SWAP1 POP JUMP JUMPDEST PUSH1 0x0 DUP3 DUP3 MSTORE PUSH1 0x20 DUP3 ADD SWAP1 POP SWAP3 SWAP2 POP POP JUMP JUMPDEST PUSH1 0x0 PUSH2 0xF16 DUP4 DUP6 PUSH2 0xEF9 JUMP JUMPDEST SWAP4 POP PUSH2 0xF23 DUP4 DUP6 DUP5 PUSH2 0x77C JUMP JUMPDEST PUSH2 0xF2C DUP4 PUSH2 0x6BF JUMP JUMPDEST DUP5 ADD SWAP1 POP SWAP4 SWAP3 POP POP POP JUMP JUMPDEST PUSH1 0x0 PUSH2 0x120 DUP4 ADD PUSH2 0xF4B PUSH1 0x0 DUP5 ADD DUP5 PUSH2 0xE96 JUMP JUMPDEST DUP6 DUP4 SUB PUSH1 0x0 DUP8 ADD MSTORE PUSH2 0xF5E DUP4 DUP3 DUP5 PUSH2 0xF0A JUMP JUMPDEST SWAP3 POP POP POP PUSH2 0xF6F PUSH1 0x20 DUP5 ADD DUP5 PUSH2 0xE96 JUMP JUMPDEST DUP6 DUP4 SUB PUSH1 0x20 DUP8 ADD MSTORE PUSH2 0xF82 DUP4 DUP3 DUP5 PUSH2 0xF0A JUMP JUMPDEST SWAP3 POP POP POP PUSH2 0xF93 PUSH1 0x40 DUP5 ADD DUP5 PUSH2 0xE96 JUMP JUMPDEST DUP6 DUP4 SUB PUSH1 0x40 DUP8 ADD MSTORE PUSH2 0xFA6 DUP4 DUP3 DUP5 PUSH2 0xF0A JUMP JUMPDEST SWAP3 POP POP POP PUSH2 0xFB7 PUSH1 0x60 DUP5 ADD DUP5 PUSH2 0xE96 JUMP JUMPDEST DUP6 DUP4 SUB PUSH1 0x60 DUP8 ADD MSTORE PUSH2 0xFCA DUP4 DUP3 DUP5 PUSH2 0xF0A JUMP JUMPDEST SWAP3 POP POP POP PUSH2 0xFDB PUSH1 0x80 DUP5 ADD DUP5 PUSH2 0xE96 JUMP JUMPDEST DUP6 DUP4 SUB PUSH1 0x80 DUP8 ADD MSTORE PUSH2 0xFEE DUP4 DUP3 DUP5 PUSH2 0xF0A JUMP JUMPDEST SWAP3 POP POP POP PUSH2 0xFFF PUSH1 0xA0 DUP5 ADD DUP5 PUSH2 0xE96 JUMP JUMPDEST DUP6 DUP4 SUB PUSH1 0xA0 DUP8 ADD MSTORE PUSH2 0x1012 DUP4 DUP3 DUP5 PUSH2 0xF0A JUMP JUMPDEST SWAP3 POP POP POP PUSH2 0x1023 PUSH1 0xC0 DUP5 ADD DUP5 PUSH2 0xE96 JUMP JUMPDEST DUP6 DUP4 SUB PUSH1 0xC0 DUP8 ADD MSTORE PUSH2 0x1036 DUP4 DUP3 DUP5 PUSH2 0xF0A JUMP JUMPDEST SWAP3 POP POP POP PUSH2 0x1047 PUSH1 0xE0 DUP5 ADD DUP5 PUSH2 0xE96 JUMP JUMPDEST DUP6 DUP4 SUB PUSH1 0xE0 DUP8 ADD MSTORE PUSH2 0x105A DUP4 DUP3 DUP5 PUSH2 0xF0A JUMP JUMPDEST SWAP3 POP POP POP PUSH2 0x106C PUSH2 0x100 DUP5 ADD DUP5 PUSH2 0xE96 JUMP JUMPDEST DUP6 DUP4 SUB PUSH2 0x100 DUP8 ADD MSTORE PUSH2 0x1080 DUP4 DUP3 DUP5 PUSH2 0xF0A JUMP JUMPDEST SWAP3 POP POP POP DUP1 SWAP2 POP POP SWAP3 SWAP2 POP POP JUMP JUMPDEST PUSH1 0x0 PUSH1 0x20 DUP3 ADD SWAP1 POP DUP2 DUP2 SUB PUSH1 0x0 DUP4 ADD MSTORE PUSH2 0x10A8 DUP2 DUP5 PUSH2 0xF37 JUMP JUMPDEST SWAP1 POP SWAP3 SWAP2 POP POP JUMP INVALID LOG2 PUSH5 0x6970667358 0x22 SLT KECCAK256 PUSH9 0x81D75588886D85F9E0 0xDA STATICCALL DUP10 0xF9 SWAP16 PUSH14 0x4FF146372F8C6D7680AD5ADCC0F0 0xD0 0xE1 PUSH5 0x736F6C6343 STOP ADDMOD SHR STOP CALLER "},"methodIdentifiers":{"issueReceipt((string,string,string,string,string,string,string,string,string))":"03c04493","receipts(string)":"80721bb9"}}}}}