{"contracts/ReviewAndRating.sol":{"ReviewAndRating":{"abi":[{"anonymous":false,"inputs":[{"indexed":false,"internalType":"string","name":"transactionId","type":"string"},{"components":[{"internalType":"string","name":"reviewer","type":"string"},{"internalType":"string","name":"reviewee","type":"string"},{"internalType":"string","name":"transactionId","type":"string"},{"internalType":"string","name":"comment","type":"string"},{"internalType":"string","name":"rating","type":"string"},{"internalType":"string","name":"createdAt","type":"string"}],"indexed":false,"internalType":"struct ReviewAndRating.Review","name":"review","type":"tuple"}],"name":"ReviewSubmitted","type":"event"},{"inputs":[{"internalType":"string","name":"","type":"string"}],"name":"productReviews","outputs":[{"internalType":"string","name":"reviewer","type":"string"},{"internalType":"string","name":"reviewee","type":"string"},{"internalType":"string","name":"transactionId","type":"string"},{"internalType":"string","name":"comment","type":"string"},{"internalType":"string","name":"rating","type":"string"},{"internalType":"string","name":"createdAt","type":"string"}],"stateMutability":"view","type":"function"},{"inputs":[{"components":[{"internalType":"string","name":"reviewer","type":"string"},{"internalType":"string","name":"reviewee","type":"string"},{"internalType":"string","name":"transactionId","type":"string"},{"internalType":"string","name":"comment","type":"string"},{"internalType":"string","name":"rating","type":"string"},{"internalType":"string","name":"createdAt","type":"string"}],"internalType":"struct ReviewAndRating.Review","name":"newReview","type":"tuple"}],"name":"submitReview","outputs":[],"stateMutability":"nonpayable","type":"function"}],"evm":{"bytecode":{"linkReferences":{},"object":"6080604052348015600f57600080fd5b50610e7a8061001f6000396000f3fe608060405234801561001057600080fd5b50600436106100365760003560e01c8063523a83f91461003b57806354be351314610057575b600080fd5b610055600480360381019061005091906104d0565b61008c565b005b610071600480360381019061006c919061065f565b610116565b60405161008396959493929190610727565b60405180910390f35b80600082806040019061009f91906107c1565b6040516100ad929190610854565b908152602001604051809103902081816100c79190610c38565b9050507fe066493309378d42761abfc45a249acec31fe1e1155855c940a65f8f3165c5f68180604001906100fb91906107c1565b8360405161010b93929190610e0b565b60405180910390a150565b60008180516020810182018051848252602083016020850120818352809550505050505060009150905080600001805461014f906108a7565b80601f016020809104026020016040519081016040528092919081815260200182805461017b906108a7565b80156101c85780601f1061019d576101008083540402835291602001916101c8565b820191906000526020600020905b8154815290600101906020018083116101ab57829003601f168201915b5050505050908060010180546101dd906108a7565b80601f0160208091040260200160405190810160405280929190818152602001828054610209906108a7565b80156102565780601f1061022b57610100808354040283529160200191610256565b820191906000526020600020905b81548152906001019060200180831161023957829003601f168201915b50505050509080600201805461026b906108a7565b80601f0160208091040260200160405190810160405280929190818152602001828054610297906108a7565b80156102e45780601f106102b9576101008083540402835291602001916102e4565b820191906000526020600020905b8154815290600101906020018083116102c757829003601f168201915b5050505050908060030180546102f9906108a7565b80601f0160208091040260200160405190810160405280929190818152602001828054610325906108a7565b80156103725780601f1061034757610100808354040283529160200191610372565b820191906000526020600020905b81548152906001019060200180831161035557829003601f168201915b505050505090806004018054610387906108a7565b80601f01602080910402602001604051908101604052809291908181526020018280546103b3906108a7565b80156104005780601f106103d557610100808354040283529160200191610400565b820191906000526020600020905b8154815290600101906020018083116103e357829003601f168201915b505050505090806005018054610415906108a7565b80601f0160208091040260200160405190810160405280929190818152602001828054610441906108a7565b801561048e5780601f106104635761010080835404028352916020019161048e565b820191906000526020600020905b81548152906001019060200180831161047157829003601f168201915b5050505050905086565b6000604051905090565b600080fd5b600080fd5b600080fd5b600060c082840312156104c7576104c66104ac565b5b81905092915050565b6000602082840312156104e6576104e56104a2565b5b600082013567ffffffffffffffff811115610504576105036104a7565b5b610510848285016104b1565b91505092915050565b600080fd5b600080fd5b6000601f19601f8301169050919050565b7f4e487b7100000000000000000000000000000000000000000000000000000000600052604160045260246000fd5b61056c82610523565b810181811067ffffffffffffffff8211171561058b5761058a610534565b5b80604052505050565b600061059e610498565b90506105aa8282610563565b919050565b600067ffffffffffffffff8211156105ca576105c9610534565b5b6105d382610523565b9050602081019050919050565b82818337600083830152505050565b60006106026105fd846105af565b610594565b90508281526020810184848401111561061e5761061d61051e565b5b6106298482856105e0565b509392505050565b600082601f83011261064657610645610519565b5b81356106568482602086016105ef565b91505092915050565b600060208284031215610675576106746104a2565b5b600082013567ffffffffffffffff811115610693576106926104a7565b5b61069f84828501610631565b91505092915050565b600081519050919050565b600082825260208201905092915050565b60005b838110156106e25780820151818401526020810190506106c7565b60008484015250505050565b60006106f9826106a8565b61070381856106b3565b93506107138185602086016106c4565b61071c81610523565b840191505092915050565b600060c082019050818103600083015261074181896106ee565b9050818103602083015261075581886106ee565b9050818103604083015261076981876106ee565b9050818103606083015261077d81866106ee565b9050818103608083015261079181856106ee565b905081810360a08301526107a581846106ee565b9050979650505050505050565b600080fd5b600080fd5b600080fd5b600080833560016020038436030381126107de576107dd6107b2565b5b80840192508235915067ffffffffffffffff821115610800576107ff6107b7565b5b60208301925060018202360383131561081c5761081b6107bc565b5b509250929050565b600081905092915050565b600061083b8385610824565b93506108488385846105e0565b82840190509392505050565b600061086182848661082f565b91508190509392505050565b600082905092915050565b7f4e487b7100000000000000000000000000000000000000000000000000000000600052602260045260246000fd5b600060028204905060018216806108bf57607f821691505b6020821081036108d2576108d1610878565b5b50919050565b60008190508160005260206000209050919050565b60006020601f8301049050919050565b600082821b905092915050565b60006008830261093a7fffffffffffffffffffffffffffffffffffffffffffffffffffffffffffffffff826108fd565b61094486836108fd565b95508019841693508086168417925050509392505050565b6000819050919050565b6000819050919050565b600061098b6109866109818461095c565b610966565b61095c565b9050919050565b6000819050919050565b6109a583610970565b6109b96109b182610992565b84845461090a565b825550505050565b600090565b6109ce6109c1565b6109d981848461099c565b505050565b5b818110156109fd576109f26000826109c6565b6001810190506109df565b5050565b601f821115610a4257610a13816108d8565b610a1c846108ed565b81016020851015610a2b578190505b610a3f610a37856108ed565b8301826109de565b50505b505050565b600082821c905092915050565b6000610a6560001984600802610a47565b1980831691505092915050565b6000610a7e8383610a54565b9150826002028217905092915050565b610a98838361086d565b67ffffffffffffffff811115610ab157610ab0610534565b5b610abb82546108a7565b610ac6828285610a01565b6000601f831160018114610af55760008415610ae3578287013590505b610aed8582610a72565b865550610b55565b601f198416610b03866108d8565b60005b82811015610b2b57848901358255600182019150602085019450602081019050610b06565b86831015610b485784890135610b44601f891682610a54565b8355505b6001600288020188555050505b50505050505050565b610b69838383610a8e565b505050565b6000810160008301610b8081856107c1565b610b8b818386610b5e565b505050506001810160208301610ba181856107c1565b610bac818386610b5e565b505050506002810160408301610bc281856107c1565b610bcd818386610b5e565b505050506003810160608301610be381856107c1565b610bee818386610b5e565b505050506004810160808301610c0481856107c1565b610c0f818386610b5e565b505050506005810160a08301610c2581856107c1565b610c30818386610b5e565b505050505050565b610c428282610b6e565b5050565b6000610c5283856106b3565b9350610c5f8385846105e0565b610c6883610523565b840190509392505050565b600080fd5b600080fd5b600080fd5b60008083356001602003843603038112610c9f57610c9e610c7d565b5b83810192508235915060208301925067ffffffffffffffff821115610cc757610cc6610c73565b5b600182023603831315610cdd57610cdc610c78565b5b509250929050565b600082825260208201905092915050565b6000610d028385610ce5565b9350610d0f8385846105e0565b610d1883610523565b840190509392505050565b600060c08301610d366000840184610c82565b8583036000870152610d49838284610cf6565b92505050610d5a6020840184610c82565b8583036020870152610d6d838284610cf6565b92505050610d7e6040840184610c82565b8583036040870152610d91838284610cf6565b92505050610da26060840184610c82565b8583036060870152610db5838284610cf6565b92505050610dc66080840184610c82565b8583036080870152610dd9838284610cf6565b92505050610dea60a0840184610c82565b85830360a0870152610dfd838284610cf6565b925050508091505092915050565b60006040820190508181036000830152610e26818587610c46565b90508181036020830152610e3a8184610d23565b905094935050505056fea264697066735822122002c6a817f8273ddc3e7ca30a0c4dbea257ccfd16eacde1fb58f8dd5a12083f0f64736f6c634300081c0033","opcodes":"PUSH1 0x80 PUSH1 0x40 MSTORE CALLVALUE DUP1 ISZERO PUSH1 0xF JUMPI PUSH1 0x0 DUP1 REVERT JUMPDEST POP PUSH2 0xE7A DUP1 PUSH2 0x1F PUSH1 0x0 CODECOPY PUSH1 0x0 RETURN INVALID PUSH1 0x80 PUSH1 0x40 MSTORE CALLVALUE DUP1 ISZERO PUSH2 0x10 JUMPI PUSH1 0x0 DUP1 REVERT JUMPDEST POP PUSH1 0x4 CALLDATASIZE LT PUSH2 0x36 JUMPI PUSH1 0x0 CALLDATALOAD PUSH1 0xE0 SHR DUP1 PUSH4 0x523A83F9 EQ PUSH2 0x3B JUMPI DUP1 PUSH4 0x54BE3513 EQ PUSH2 0x57 JUMPI JUMPDEST PUSH1 0x0 DUP1 REVERT JUMPDEST PUSH2 0x55 PUSH1 0x4 DUP1 CALLDATASIZE SUB DUP2 ADD SWAP1 PUSH2 0x50 SWAP2 SWAP1 PUSH2 0x4D0 JUMP JUMPDEST PUSH2 0x8C JUMP JUMPDEST STOP JUMPDEST PUSH2 0x71 PUSH1 0x4 DUP1 CALLDATASIZE SUB DUP2 ADD SWAP1 PUSH2 0x6C SWAP2 SWAP1 PUSH2 0x65F JUMP JUMPDEST PUSH2 0x116 JUMP JUMPDEST PUSH1 0x40 MLOAD PUSH2 0x83 SWAP7 SWAP6 SWAP5 SWAP4 SWAP3 SWAP2 SWAP1 PUSH2 0x727 JUMP JUMPDEST PUSH1 0x40 MLOAD DUP1 SWAP2 SUB SWAP1 RETURN JUMPDEST DUP1 PUSH1 0x0 DUP3 DUP1 PUSH1 0x40 ADD SWAP1 PUSH2 0x9F SWAP2 SWAP1 PUSH2 0x7C1 JUMP JUMPDEST PUSH1 0x40 MLOAD PUSH2 0xAD SWAP3 SWAP2 SWAP1 PUSH2 0x854 JUMP JUMPDEST SWAP1 DUP2 MSTORE PUSH1 0x20 ADD PUSH1 0x40 MLOAD DUP1 SWAP2 SUB SWAP1 KECCAK256 DUP2 DUP2 PUSH2 0xC7 SWAP2 SWAP1 PUSH2 0xC38 JUMP JUMPDEST SWAP1 POP POP PUSH32 0xE066493309378D42761ABFC45A249ACEC31FE1E1155855C940A65F8F3165C5F6 DUP2 DUP1 PUSH1 0x40 ADD SWAP1 PUSH2 0xFB SWAP2 SWAP1 PUSH2 0x7C1 JUMP JUMPDEST DUP4 PUSH1 0x40 MLOAD PUSH2 0x10B SWAP4 SWAP3 SWAP2 SWAP1 PUSH2 0xE0B JUMP JUMPDEST PUSH1 0x40 MLOAD DUP1 SWAP2 SUB SWAP1 LOG1 POP JUMP JUMPDEST PUSH1 0x0 DUP2 DUP1 MLOAD PUSH1 0x20 DUP2 ADD DUP3 ADD DUP1 MLOAD DUP5 DUP3 MSTORE PUSH1 0x20 DUP4 ADD PUSH1 0x20 DUP6 ADD KECCAK256 DUP2 DUP4 MSTORE DUP1 SWAP6 POP POP POP POP POP POP PUSH1 0x0 SWAP2 POP SWAP1 POP DUP1 PUSH1 0x0 ADD DUP1 SLOAD PUSH2 0x14F SWAP1 PUSH2 0x8A7 JUMP JUMPDEST DUP1 PUSH1 0x1F ADD PUSH1 0x20 DUP1 SWAP2 DIV MUL PUSH1 0x20 ADD PUSH1 0x40 MLOAD SWAP1 DUP2 ADD PUSH1 0x40 MSTORE DUP1 SWAP3 SWAP2 SWAP1 DUP2 DUP2 MSTORE PUSH1 0x20 ADD DUP3 DUP1 SLOAD PUSH2 0x17B SWAP1 PUSH2 0x8A7 JUMP JUMPDEST DUP1 ISZERO PUSH2 0x1C8 JUMPI DUP1 PUSH1 0x1F LT PUSH2 0x19D JUMPI PUSH2 0x100 DUP1 DUP4 SLOAD DIV MUL DUP4 MSTORE SWAP2 PUSH1 0x20 ADD SWAP2 PUSH2 0x1C8 JUMP JUMPDEST DUP3 ADD SWAP2 SWAP1 PUSH1 0x0 MSTORE PUSH1 0x20 PUSH1 0x0 KECCAK256 SWAP1 JUMPDEST DUP2 SLOAD DUP2 MSTORE SWAP1 PUSH1 0x1 ADD SWAP1 PUSH1 0x20 ADD DUP1 DUP4 GT PUSH2 0x1AB JUMPI DUP3 SWAP1 SUB PUSH1 0x1F AND DUP3 ADD SWAP2 JUMPDEST POP POP POP POP POP SWAP1 DUP1 PUSH1 0x1 ADD DUP1 SLOAD PUSH2 0x1DD SWAP1 PUSH2 0x8A7 JUMP JUMPDEST DUP1 PUSH1 0x1F ADD PUSH1 0x20 DUP1 SWAP2 DIV MUL PUSH1 0x20 ADD PUSH1 0x40 MLOAD SWAP1 DUP2 ADD PUSH1 0x40 MSTORE DUP1 SWAP3 SWAP2 SWAP1 DUP2 DUP2 MSTORE PUSH1 0x20 ADD DUP3 DUP1 SLOAD PUSH2 0x209 SWAP1 PUSH2 0x8A7 JUMP JUMPDEST DUP1 ISZERO PUSH2 0x256 JUMPI DUP1 PUSH1 0x1F LT PUSH2 0x22B JUMPI PUSH2 0x100 DUP1 DUP4 SLOAD DIV MUL DUP4 MSTORE SWAP2 PUSH1 0x20 ADD SWAP2 PUSH2 0x256 JUMP JUMPDEST DUP3 ADD SWAP2 SWAP1 PUSH1 0x0 MSTORE PUSH1 0x20 PUSH1 0x0 KECCAK256 SWAP1 JUMPDEST DUP2 SLOAD DUP2 MSTORE SWAP1 PUSH1 0x1 ADD SWAP1 PUSH1 0x20 ADD DUP1 DUP4 GT PUSH2 0x239 JUMPI DUP3 SWAP1 SUB PUSH1 0x1F AND DUP3 ADD SWAP2 JUMPDEST POP POP POP POP POP SWAP1 DUP1 PUSH1 0x2 ADD DUP1 SLOAD PUSH2 0x26B SWAP1 PUSH2 0x8A7 JUMP JUMPDEST DUP1 PUSH1 0x1F ADD PUSH1 0x20 DUP1 SWAP2 DIV MUL PUSH1 0x20 ADD PUSH1 0x40 MLOAD SWAP1 DUP2 ADD PUSH1 0x40 MSTORE DUP1 SWAP3 SWAP2 SWAP1 DUP2 DUP2 MSTORE PUSH1 0x20 ADD DUP3 DUP1 SLOAD PUSH2 0x297 SWAP1 PUSH2 0x8A7 JUMP JUMPDEST DUP1 ISZERO PUSH2 0x2E4 JUMPI DUP1 PUSH1 0x1F LT PUSH2 0x2B9 JUMPI PUSH2 0x100 DUP1 DUP4 SLOAD DIV MUL DUP4 MSTORE SWAP2 PUSH1 0x20 ADD SWAP2 PUSH2 0x2E4 JUMP JUMPDEST DUP3 ADD SWAP2 SWAP1 PUSH1 0x0 MSTORE PUSH1 0x20 PUSH1 0x0 KECCAK256 SWAP1 JUMPDEST DUP2 SLOAD DUP2 MSTORE SWAP1 PUSH1 0x1 ADD SWAP1 PUSH1 0x20 ADD DUP1 DUP4 GT PUSH2 0x2C7 JUMPI DUP3 SWAP1 SUB PUSH1 0x1F AND DUP3 ADD SWAP2 JUMPDEST POP POP POP POP POP SWAP1 DUP1 PUSH1 0x3 ADD DUP1 SLOAD PUSH2 0x2F9 SWAP1 PUSH2 0x8A7 JUMP JUMPDEST DUP1 PUSH1 0x1F ADD PUSH1 0x20 DUP1 SWAP2 DIV MUL PUSH1 0x20 ADD PUSH1 0x40 MLOAD SWAP1 DUP2 ADD PUSH1 0x40 MSTORE DUP1 SWAP3 SWAP2 SWAP1 DUP2 DUP2 MSTORE PUSH1 0x20 ADD DUP3 DUP1 SLOAD PUSH2 0x325 SWAP1 PUSH2 0x8A7 JUMP JUMPDEST DUP1 ISZERO PUSH2 0x372 JUMPI DUP1 PUSH1 0x1F LT PUSH2 0x347 JUMPI PUSH2 0x100 DUP1 DUP4 SLOAD DIV MUL DUP4 MSTORE SWAP2 PUSH1 0x20 ADD SWAP2 PUSH2 0x372 JUMP JUMPDEST DUP3 ADD SWAP2 SWAP1 PUSH1 0x0 MSTORE PUSH1 0x20 PUSH1 0x0 KECCAK256 SWAP1 JUMPDEST DUP2 SLOAD DUP2 MSTORE SWAP1 PUSH1 0x1 ADD SWAP1 PUSH1 0x20 ADD DUP1 DUP4 GT PUSH2 0x355 JUMPI DUP3 SWAP1 SUB PUSH1 0x1F AND DUP3 ADD SWAP2 JUMPDEST POP POP POP POP POP SWAP1 DUP1 PUSH1 0x4 ADD DUP1 SLOAD PUSH2 0x387 SWAP1 PUSH2 0x8A7 JUMP JUMPDEST DUP1 PUSH1 0x1F ADD PUSH1 0x20 DUP1 SWAP2 DIV MUL PUSH1 0x20 ADD PUSH1 0x40 MLOAD SWAP1 DUP2 ADD PUSH1 0x40 MSTORE DUP1 SWAP3 SWAP2 SWAP1 DUP2 DUP2 MSTORE PUSH1 0x20 ADD DUP3 DUP1 SLOAD PUSH2 0x3B3 SWAP1 PUSH2 0x8A7 JUMP JUMPDEST DUP1 ISZERO PUSH2 0x400 JUMPI DUP1 PUSH1 0x1F LT PUSH2 0x3D5 JUMPI PUSH2 0x100 DUP1 DUP4 SLOAD DIV MUL DUP4 MSTORE SWAP2 PUSH1 0x20 ADD SWAP2 PUSH2 0x400 JUMP JUMPDEST DUP3 ADD SWAP2 SWAP1 PUSH1 0x0 MSTORE PUSH1 0x20 PUSH1 0x0 KECCAK256 SWAP1 JUMPDEST DUP2 SLOAD DUP2 MSTORE SWAP1 PUSH1 0x1 ADD SWAP1 PUSH1 0x20 ADD DUP1 DUP4 GT PUSH2 0x3E3 JUMPI DUP3 SWAP1 SUB PUSH1 0x1F AND DUP3 ADD SWAP2 JUMPDEST POP POP POP POP POP SWAP1 DUP1 PUSH1 0x5 ADD DUP1 SLOAD PUSH2 0x415 SWAP1 PUSH2 0x8A7 JUMP JUMPDEST DUP1 PUSH1 0x1F ADD PUSH1 0x20 DUP1 SWAP2 DIV MUL PUSH1 0x20 ADD PUSH1 0x40 MLOAD SWAP1 DUP2 ADD PUSH1 0x40 MSTORE DUP1 SWAP3 SWAP2 SWAP1 DUP2 DUP2 MSTORE PUSH1 0x20 ADD DUP3 DUP1 SLOAD PUSH2 0x441 SWAP1 PUSH2 0x8A7 JUMP JUMPDEST DUP1 ISZERO PUSH2 0x48E JUMPI DUP1 PUSH1 0x1F LT PUSH2 0x463 JUMPI PUSH2 0x100 DUP1 DUP4 SLOAD DIV MUL DUP4 MSTORE SWAP2 PUSH1 0x20 ADD SWAP2 PUSH2 0x48E JUMP JUMPDEST DUP3 ADD SWAP2 SWAP1 PUSH1 0x0 MSTORE PUSH1 0x20 PUSH1 0x0 KECCAK256 SWAP1 JUMPDEST DUP2 SLOAD DUP2 MSTORE SWAP1 PUSH1 0x1 ADD SWAP1 PUSH1 0x20 ADD DUP1 DUP4 GT PUSH2 0x471 JUMPI DUP3 SWAP1 SUB PUSH1 0x1F AND DUP3 ADD SWAP2 JUMPDEST POP POP POP POP POP SWAP1 POP DUP7 JUMP JUMPDEST PUSH1 0x0 PUSH1 0x40 MLOAD SWAP1 POP SWAP1 JUMP JUMPDEST PUSH1 0x0 DUP1 REVERT JUMPDEST PUSH1 0x0 DUP1 REVERT JUMPDEST PUSH1 0x0 DUP1 REVERT JUMPDEST PUSH1 0x0 PUSH1 0xC0 DUP3 DUP5 SUB SLT ISZERO PUSH2 0x4C7 JUMPI PUSH2 0x4C6 PUSH2 0x4AC JUMP JUMPDEST JUMPDEST DUP2 SWAP1 POP SWAP3 SWAP2 POP POP JUMP JUMPDEST PUSH1 0x0 PUSH1 0x20 DUP3 DUP5 SUB SLT ISZERO PUSH2 0x4E6 JUMPI PUSH2 0x4E5 PUSH2 0x4A2 JUMP JUMPDEST JUMPDEST PUSH1 0x0 DUP3 ADD CALLDATALOAD PUSH8 0xFFFFFFFFFFFFFFFF DUP2 GT ISZERO PUSH2 0x504 JUMPI PUSH2 0x503 PUSH2 0x4A7 JUMP JUMPDEST JUMPDEST PUSH2 0x510 DUP5 DUP3 DUP6 ADD PUSH2 0x4B1 JUMP JUMPDEST SWAP2 POP POP SWAP3 SWAP2 POP POP JUMP JUMPDEST PUSH1 0x0 DUP1 REVERT JUMPDEST PUSH1 0x0 DUP1 REVERT JUMPDEST PUSH1 0x0 PUSH1 0x1F NOT PUSH1 0x1F DUP4 ADD AND SWAP1 POP SWAP2 SWAP1 POP JUMP JUMPDEST PUSH32 0x4E487B7100000000000000000000000000000000000000000000000000000000 PUSH1 0x0 MSTORE PUSH1 0x41 PUSH1 0x4 MSTORE PUSH1 0x24 PUSH1 0x0 REVERT JUMPDEST PUSH2 0x56C DUP3 PUSH2 0x523 JUMP JUMPDEST DUP2 ADD DUP2 DUP2 LT PUSH8 0xFFFFFFFFFFFFFFFF DUP3 GT OR ISZERO PUSH2 0x58B JUMPI PUSH2 0x58A PUSH2 0x534 JUMP JUMPDEST JUMPDEST DUP1 PUSH1 0x40 MSTORE POP POP POP JUMP JUMPDEST PUSH1 0x0 PUSH2 0x59E PUSH2 0x498 JUMP JUMPDEST SWAP1 POP PUSH2 0x5AA DUP3 DUP3 PUSH2 0x563 JUMP JUMPDEST SWAP2 SWAP1 POP JUMP JUMPDEST PUSH1 0x0 PUSH8 0xFFFFFFFFFFFFFFFF DUP3 GT ISZERO PUSH2 0x5CA JUMPI PUSH2 0x5C9 PUSH2 0x534 JUMP JUMPDEST JUMPDEST PUSH2 0x5D3 DUP3 PUSH2 0x523 JUMP JUMPDEST SWAP1 POP PUSH1 0x20 DUP2 ADD SWAP1 POP SWAP2 SWAP1 POP JUMP JUMPDEST DUP3 DUP2 DUP4 CALLDATACOPY PUSH1 0x0 DUP4 DUP4 ADD MSTORE POP POP POP JUMP JUMPDEST PUSH1 0x0 PUSH2 0x602 PUSH2 0x5FD DUP5 PUSH2 0x5AF JUMP JUMPDEST PUSH2 0x594 JUMP JUMPDEST SWAP1 POP DUP3 DUP2 MSTORE PUSH1 0x20 DUP2 ADD DUP5 DUP5 DUP5 ADD GT ISZERO PUSH2 0x61E JUMPI PUSH2 0x61D PUSH2 0x51E JUMP JUMPDEST JUMPDEST PUSH2 0x629 DUP5 DUP3 DUP6 PUSH2 0x5E0 JUMP JUMPDEST POP SWAP4 SWAP3 POP POP POP JUMP JUMPDEST PUSH1 0x0 DUP3 PUSH1 0x1F DUP4 ADD SLT PUSH2 0x646 JUMPI PUSH2 0x645 PUSH2 0x519 JUMP JUMPDEST JUMPDEST DUP2 CALLDATALOAD PUSH2 0x656 DUP5 DUP3 PUSH1 0x20 DUP7 ADD PUSH2 0x5EF JUMP JUMPDEST SWAP2 POP POP SWAP3 SWAP2 POP POP JUMP JUMPDEST PUSH1 0x0 PUSH1 0x20 DUP3 DUP5 SUB SLT ISZERO PUSH2 0x675 JUMPI PUSH2 0x674 PUSH2 0x4A2 JUMP JUMPDEST JUMPDEST PUSH1 0x0 DUP3 ADD CALLDATALOAD PUSH8 0xFFFFFFFFFFFFFFFF DUP2 GT ISZERO PUSH2 0x693 JUMPI PUSH2 0x692 PUSH2 0x4A7 JUMP JUMPDEST JUMPDEST PUSH2 0x69F DUP5 DUP3 DUP6 ADD PUSH2 0x631 JUMP JUMPDEST SWAP2 POP POP SWAP3 SWAP2 POP POP JUMP JUMPDEST PUSH1 0x0 DUP2 MLOAD SWAP1 POP SWAP2 SWAP1 POP JUMP JUMPDEST PUSH1 0x0 DUP3 DUP3 MSTORE PUSH1 0x20 DUP3 ADD SWAP1 POP SWAP3 SWAP2 POP POP JUMP JUMPDEST PUSH1 0x0 JUMPDEST DUP4 DUP2 LT ISZERO PUSH2 0x6E2 JUMPI DUP1 DUP3 ADD MLOAD DUP2 DUP5 ADD MSTORE PUSH1 0x20 DUP2 ADD SWAP1 POP PUSH2 0x6C7 JUMP JUMPDEST PUSH1 0x0 DUP5 DUP5 ADD MSTORE POP POP POP POP JUMP JUMPDEST PUSH1 0x0 PUSH2 0x6F9 DUP3 PUSH2 0x6A8 JUMP JUMPDEST PUSH2 0x703 DUP2 DUP6 PUSH2 0x6B3 JUMP JUMPDEST SWAP4 POP PUSH2 0x713 DUP2 DUP6 PUSH1 0x20 DUP7 ADD PUSH2 0x6C4 JUMP JUMPDEST PUSH2 0x71C DUP2 PUSH2 0x523 JUMP JUMPDEST DUP5 ADD SWAP2 POP POP SWAP3 SWAP2 POP POP JUMP JUMPDEST PUSH1 0x0 PUSH1 0xC0 DUP3 ADD SWAP1 POP DUP2 DUP2 SUB PUSH1 0x0 DUP4 ADD MSTORE PUSH2 0x741 DUP2 DUP10 PUSH2 0x6EE JUMP JUMPDEST SWAP1 POP DUP2 DUP2 SUB PUSH1 0x20 DUP4 ADD MSTORE PUSH2 0x755 DUP2 DUP9 PUSH2 0x6EE JUMP JUMPDEST SWAP1 POP DUP2 DUP2 SUB PUSH1 0x40 DUP4 ADD MSTORE PUSH2 0x769 DUP2 DUP8 PUSH2 0x6EE JUMP JUMPDEST SWAP1 POP DUP2 DUP2 SUB PUSH1 0x60 DUP4 ADD MSTORE PUSH2 0x77D DUP2 DUP7 PUSH2 0x6EE JUMP JUMPDEST SWAP1 POP DUP2 DUP2 SUB PUSH1 0x80 DUP4 ADD MSTORE PUSH2 0x791 DUP2 DUP6 PUSH2 0x6EE JUMP JUMPDEST SWAP1 POP DUP2 DUP2 SUB PUSH1 0xA0 DUP4 ADD MSTORE PUSH2 0x7A5 DUP2 DUP5 PUSH2 0x6EE JUMP JUMPDEST SWAP1 POP SWAP8 SWAP7 POP POP POP POP POP POP POP JUMP JUMPDEST PUSH1 0x0 DUP1 REVERT JUMPDEST PUSH1 0x0 DUP1 REVERT JUMPDEST PUSH1 0x0 DUP1 REVERT JUMPDEST PUSH1 0x0 DUP1 DUP4 CALLDATALOAD PUSH1 0x1 PUSH1 0x20 SUB DUP5 CALLDATASIZE SUB SUB DUP2 SLT PUSH2 0x7DE JUMPI PUSH2 0x7DD PUSH2 0x7B2 JUMP JUMPDEST JUMPDEST DUP1 DUP5 ADD SWAP3 POP DUP3 CALLDATALOAD SWAP2 POP PUSH8 0xFFFFFFFFFFFFFFFF DUP3 GT ISZERO PUSH2 0x800 JUMPI PUSH2 0x7FF PUSH2 0x7B7 JUMP JUMPDEST JUMPDEST PUSH1 0x20 DUP4 ADD SWAP3 POP PUSH1 0x1 DUP3 MUL CALLDATASIZE SUB DUP4 SGT ISZERO PUSH2 0x81C JUMPI PUSH2 0x81B PUSH2 0x7BC JUMP JUMPDEST JUMPDEST POP SWAP3 POP SWAP3 SWAP1 POP JUMP JUMPDEST PUSH1 0x0 DUP2 SWAP1 POP SWAP3 SWAP2 POP POP JUMP JUMPDEST PUSH1 0x0 PUSH2 0x83B DUP4 DUP6 PUSH2 0x824 JUMP JUMPDEST SWAP4 POP PUSH2 0x848 DUP4 DUP6 DUP5 PUSH2 0x5E0 JUMP JUMPDEST DUP3 DUP5 ADD SWAP1 POP SWAP4 SWAP3 POP POP POP JUMP JUMPDEST PUSH1 0x0 PUSH2 0x861 DUP3 DUP5 DUP7 PUSH2 0x82F JUMP JUMPDEST SWAP2 POP DUP2 SWAP1 POP SWAP4 SWAP3 POP POP POP JUMP JUMPDEST PUSH1 0x0 DUP3 SWAP1 POP SWAP3 SWAP2 POP POP JUMP JUMPDEST PUSH32 0x4E487B7100000000000000000000000000000000000000000000000000000000 PUSH1 0x0 MSTORE PUSH1 0x22 PUSH1 0x4 MSTORE PUSH1 0x24 PUSH1 0x0 REVERT JUMPDEST PUSH1 0x0 PUSH1 0x2 DUP3 DIV SWAP1 POP PUSH1 0x1 DUP3 AND DUP1 PUSH2 0x8BF JUMPI PUSH1 0x7F DUP3 AND SWAP2 POP JUMPDEST PUSH1 0x20 DUP3 LT DUP2 SUB PUSH2 0x8D2 JUMPI PUSH2 0x8D1 PUSH2 0x878 JUMP JUMPDEST JUMPDEST POP SWAP2 SWAP1 POP JUMP JUMPDEST PUSH1 0x0 DUP2 SWAP1 POP DUP2 PUSH1 0x0 MSTORE PUSH1 0x20 PUSH1 0x0 KECCAK256 SWAP1 POP SWAP2 SWAP1 POP JUMP JUMPDEST PUSH1 0x0 PUSH1 0x20 PUSH1 0x1F DUP4 ADD DIV SWAP1 POP SWAP2 SWAP1 POP JUMP JUMPDEST PUSH1 0x0 DUP3 DUP3 SHL SWAP1 POP SWAP3 SWAP2 POP POP JUMP JUMPDEST PUSH1 0x0 PUSH1 0x8 DUP4 MUL PUSH2 0x93A PUSH32 0xFFFFFFFFFFFFFFFFFFFFFFFFFFFFFFFFFFFFFFFFFFFFFFFFFFFFFFFFFFFFFFFF DUP3 PUSH2 0x8FD JUMP JUMPDEST PUSH2 0x944 DUP7 DUP4 PUSH2 0x8FD JUMP JUMPDEST SWAP6 POP DUP1 NOT DUP5 AND SWAP4 POP DUP1 DUP7 AND DUP5 OR SWAP3 POP POP POP SWAP4 SWAP3 POP POP POP JUMP JUMPDEST PUSH1 0x0 DUP2 SWAP1 POP SWAP2 SWAP1 POP JUMP JUMPDEST PUSH1 0x0 DUP2 SWAP1 POP SWAP2 SWAP1 POP JUMP JUMPDEST PUSH1 0x0 PUSH2 0x98B PUSH2 0x986 PUSH2 0x981 DUP5 PUSH2 0x95C JUMP JUMPDEST PUSH2 0x966 JUMP JUMPDEST PUSH2 0x95C JUMP JUMPDEST SWAP1 POP SWAP2 SWAP1 POP JUMP JUMPDEST PUSH1 0x0 DUP2 SWAP1 POP SWAP2 SWAP1 POP JUMP JUMPDEST PUSH2 0x9A5 DUP4 PUSH2 0x970 JUMP JUMPDEST PUSH2 0x9B9 PUSH2 0x9B1 DUP3 PUSH2 0x992 JUMP JUMPDEST DUP5 DUP5 SLOAD PUSH2 0x90A JUMP JUMPDEST DUP3 SSTORE POP POP POP POP JUMP JUMPDEST PUSH1 0x0 SWAP1 JUMP JUMPDEST PUSH2 0x9CE PUSH2 0x9C1 JUMP JUMPDEST PUSH2 0x9D9 DUP2 DUP5 DUP5 PUSH2 0x99C JUMP JUMPDEST POP POP POP JUMP JUMPDEST JUMPDEST DUP2 DUP2 LT ISZERO PUSH2 0x9FD JUMPI PUSH2 0x9F2 PUSH1 0x0 DUP3 PUSH2 0x9C6 JUMP JUMPDEST PUSH1 0x1 DUP2 ADD SWAP1 POP PUSH2 0x9DF JUMP JUMPDEST POP POP JUMP JUMPDEST PUSH1 0x1F DUP3 GT ISZERO PUSH2 0xA42 JUMPI PUSH2 0xA13 DUP2 PUSH2 0x8D8 JUMP JUMPDEST PUSH2 0xA1C DUP5 PUSH2 0x8ED JUMP JUMPDEST DUP2 ADD PUSH1 0x20 DUP6 LT ISZERO PUSH2 0xA2B JUMPI DUP2 SWAP1 POP JUMPDEST PUSH2 0xA3F PUSH2 0xA37 DUP6 PUSH2 0x8ED JUMP JUMPDEST DUP4 ADD DUP3 PUSH2 0x9DE JUMP JUMPDEST POP POP JUMPDEST POP POP POP JUMP JUMPDEST PUSH1 0x0 DUP3 DUP3 SHR SWAP1 POP SWAP3 SWAP2 POP POP JUMP JUMPDEST PUSH1 0x0 PUSH2 0xA65 PUSH1 0x0 NOT DUP5 PUSH1 0x8 MUL PUSH2 0xA47 JUMP JUMPDEST NOT DUP1 DUP4 AND SWAP2 POP POP SWAP3 SWAP2 POP POP JUMP JUMPDEST PUSH1 0x0 PUSH2 0xA7E DUP4 DUP4 PUSH2 0xA54 JUMP JUMPDEST SWAP2 POP DUP3 PUSH1 0x2 MUL DUP3 OR SWAP1 POP SWAP3 SWAP2 POP POP JUMP JUMPDEST PUSH2 0xA98 DUP4 DUP4 PUSH2 0x86D JUMP JUMPDEST PUSH8 0xFFFFFFFFFFFFFFFF DUP2 GT ISZERO PUSH2 0xAB1 JUMPI PUSH2 0xAB0 PUSH2 0x534 JUMP JUMPDEST JUMPDEST PUSH2 0xABB DUP3 SLOAD PUSH2 0x8A7 JUMP JUMPDEST PUSH2 0xAC6 DUP3 DUP3 DUP6 PUSH2 0xA01 JUMP JUMPDEST PUSH1 0x0 PUSH1 0x1F DUP4 GT PUSH1 0x1 DUP2 EQ PUSH2 0xAF5 JUMPI PUSH1 0x0 DUP5 ISZERO PUSH2 0xAE3 JUMPI DUP3 DUP8 ADD CALLDATALOAD SWAP1 POP JUMPDEST PUSH2 0xAED DUP6 DUP3 PUSH2 0xA72 JUMP JUMPDEST DUP7 SSTORE POP PUSH2 0xB55 JUMP JUMPDEST PUSH1 0x1F NOT DUP5 AND PUSH2 0xB03 DUP7 PUSH2 0x8D8 JUMP JUMPDEST PUSH1 0x0 JUMPDEST DUP3 DUP2 LT ISZERO PUSH2 0xB2B JUMPI DUP5 DUP10 ADD CALLDATALOAD DUP3 SSTORE PUSH1 0x1 DUP3 ADD SWAP2 POP PUSH1 0x20 DUP6 ADD SWAP5 POP PUSH1 0x20 DUP2 ADD SWAP1 POP PUSH2 0xB06 JUMP JUMPDEST DUP7 DUP4 LT ISZERO PUSH2 0xB48 JUMPI DUP5 DUP10 ADD CALLDATALOAD PUSH2 0xB44 PUSH1 0x1F DUP10 AND DUP3 PUSH2 0xA54 JUMP JUMPDEST DUP4 SSTORE POP JUMPDEST PUSH1 0x1 PUSH1 0x2 DUP9 MUL ADD DUP9 SSTORE POP POP POP JUMPDEST POP POP POP POP POP POP POP JUMP JUMPDEST PUSH2 0xB69 DUP4 DUP4 DUP4 PUSH2 0xA8E JUMP JUMPDEST POP POP POP JUMP JUMPDEST PUSH1 0x0 DUP2 ADD PUSH1 0x0 DUP4 ADD PUSH2 0xB80 DUP2 DUP6 PUSH2 0x7C1 JUMP JUMPDEST PUSH2 0xB8B DUP2 DUP4 DUP7 PUSH2 0xB5E JUMP JUMPDEST POP POP POP POP PUSH1 0x1 DUP2 ADD PUSH1 0x20 DUP4 ADD PUSH2 0xBA1 DUP2 DUP6 PUSH2 0x7C1 JUMP JUMPDEST PUSH2 0xBAC DUP2 DUP4 DUP7 PUSH2 0xB5E JUMP JUMPDEST POP POP POP POP PUSH1 0x2 DUP2 ADD PUSH1 0x40 DUP4 ADD PUSH2 0xBC2 DUP2 DUP6 PUSH2 0x7C1 JUMP JUMPDEST PUSH2 0xBCD DUP2 DUP4 DUP7 PUSH2 0xB5E JUMP JUMPDEST POP POP POP POP PUSH1 0x3 DUP2 ADD PUSH1 0x60 DUP4 ADD PUSH2 0xBE3 DUP2 DUP6 PUSH2 0x7C1 JUMP JUMPDEST PUSH2 0xBEE DUP2 DUP4 DUP7 PUSH2 0xB5E JUMP JUMPDEST POP POP POP POP PUSH1 0x4 DUP2 ADD PUSH1 0x80 DUP4 ADD PUSH2 0xC04 DUP2 DUP6 PUSH2 0x7C1 JUMP JUMPDEST PUSH2 0xC0F DUP2 DUP4 DUP7 PUSH2 0xB5E JUMP JUMPDEST POP POP POP POP PUSH1 0x5 DUP2 ADD PUSH1 0xA0 DUP4 ADD PUSH2 0xC25 DUP2 DUP6 PUSH2 0x7C1 JUMP JUMPDEST PUSH2 0xC30 DUP2 DUP4 DUP7 PUSH2 0xB5E JUMP JUMPDEST POP POP POP POP POP POP JUMP JUMPDEST PUSH2 0xC42 DUP3 DUP3 PUSH2 0xB6E JUMP JUMPDEST POP POP JUMP JUMPDEST PUSH1 0x0 PUSH2 0xC52 DUP4 DUP6 PUSH2 0x6B3 JUMP JUMPDEST SWAP4 POP PUSH2 0xC5F DUP4 DUP6 DUP5 PUSH2 0x5E0 JUMP JUMPDEST PUSH2 0xC68 DUP4 PUSH2 0x523 JUMP JUMPDEST DUP5 ADD SWAP1 POP SWAP4 SWAP3 POP POP POP JUMP JUMPDEST PUSH1 0x0 DUP1 REVERT JUMPDEST PUSH1 0x0 DUP1 REVERT JUMPDEST PUSH1 0x0 DUP1 REVERT JUMPDEST PUSH1 0x0 DUP1 DUP4 CALLDATALOAD PUSH1 0x1 PUSH1 0x20 SUB DUP5 CALLDATASIZE SUB SUB DUP2 SLT PUSH2 0xC9F JUMPI PUSH2 0xC9E PUSH2 0xC7D JUMP JUMPDEST JUMPDEST DUP4 DUP2 ADD SWAP3 POP DUP3 CALLDATALOAD SWAP2 POP PUSH1 0x20 DUP4 ADD SWAP3 POP PUSH8 0xFFFFFFFFFFFFFFFF DUP3 GT ISZERO PUSH2 0xCC7 JUMPI PUSH2 0xCC6 PUSH2 0xC73 JUMP JUMPDEST JUMPDEST PUSH1 0x1 DUP3 MUL CALLDATASIZE SUB DUP4 SGT ISZERO PUSH2 0xCDD JUMPI PUSH2 0xCDC PUSH2 0xC78 JUMP JUMPDEST JUMPDEST POP SWAP3 POP SWAP3 SWAP1 POP JUMP JUMPDEST PUSH1 0x0 DUP3 DUP3 MSTORE PUSH1 0x20 DUP3 ADD SWAP1 POP SWAP3 SWAP2 POP POP JUMP JUMPDEST PUSH1 0x0 PUSH2 0xD02 DUP4 DUP6 PUSH2 0xCE5 JUMP JUMPDEST SWAP4 POP PUSH2 0xD0F DUP4 DUP6 DUP5 PUSH2 0x5E0 JUMP JUMPDEST PUSH2 0xD18 DUP4 PUSH2 0x523 JUMP JUMPDEST DUP5 ADD SWAP1 POP SWAP4 SWAP3 POP POP POP JUMP JUMPDEST PUSH1 0x0 PUSH1 0xC0 DUP4 ADD PUSH2 0xD36 PUSH1 0x0 DUP5 ADD DUP5 PUSH2 0xC82 JUMP JUMPDEST DUP6 DUP4 SUB PUSH1 0x0 DUP8 ADD MSTORE PUSH2 0xD49 DUP4 DUP3 DUP5 PUSH2 0xCF6 JUMP JUMPDEST SWAP3 POP POP POP PUSH2 0xD5A PUSH1 0x20 DUP5 ADD DUP5 PUSH2 0xC82 JUMP JUMPDEST DUP6 DUP4 SUB PUSH1 0x20 DUP8 ADD MSTORE PUSH2 0xD6D DUP4 DUP3 DUP5 PUSH2 0xCF6 JUMP JUMPDEST SWAP3 POP POP POP PUSH2 0xD7E PUSH1 0x40 DUP5 ADD DUP5 PUSH2 0xC82 JUMP JUMPDEST DUP6 DUP4 SUB PUSH1 0x40 DUP8 ADD MSTORE PUSH2 0xD91 DUP4 DUP3 DUP5 PUSH2 0xCF6 JUMP JUMPDEST SWAP3 POP POP POP PUSH2 0xDA2 PUSH1 0x60 DUP5 ADD DUP5 PUSH2 0xC82 JUMP JUMPDEST DUP6 DUP4 SUB PUSH1 0x60 DUP8 ADD MSTORE PUSH2 0xDB5 DUP4 DUP3 DUP5 PUSH2 0xCF6 JUMP JUMPDEST SWAP3 POP POP POP PUSH2 0xDC6 PUSH1 0x80 DUP5 ADD DUP5 PUSH2 0xC82 JUMP JUMPDEST DUP6 DUP4 SUB PUSH1 0x80 DUP8 ADD MSTORE PUSH2 0xDD9 DUP4 DUP3 DUP5 PUSH2 0xCF6 JUMP JUMPDEST SWAP3 POP POP POP PUSH2 0xDEA PUSH1 0xA0 DUP5 ADD DUP5 PUSH2 0xC82 JUMP JUMPDEST DUP6 DUP4 SUB PUSH1 0xA0 DUP8 ADD MSTORE PUSH2 0xDFD DUP4 DUP3 DUP5 PUSH2 0xCF6 JUMP JUMPDEST SWAP3 POP POP POP DUP1 SWAP2 POP POP SWAP3 SWAP2 POP POP JUMP JUMPDEST PUSH1 0x0 PUSH1 0x40 DUP3 ADD SWAP1 POP DUP2 DUP2 SUB PUSH1 0x0 DUP4 ADD MSTORE PUSH2 0xE26 DUP2 DUP6 DUP8 PUSH2 0xC46 JUMP JUMPDEST SWAP1 POP DUP2 DUP2 SUB PUSH1 0x20 DUP4 ADD MSTORE PUSH2 0xE3A DUP2 DUP5 PUSH2 0xD23 JUMP JUMPDEST SWAP1 POP SWAP5 SWAP4 POP POP POP POP JUMP INVALID LOG2 PUSH5 0x6970667358 0x22 SLT KECCAK256 MUL 0xC6 0xA8 OR 0xF8 0x27 RETURNDATASIZE 0xDC RETURNDATACOPY PUSH29 0xA30A0C4DBEA257CCFD16EACDE1FB58F8DD5A12083F0F64736F6C634300 ADDMOD SHR STOP CALLER "},"methodIdentifiers":{"productReviews(string)":"54be3513","submitReview((string,string,string,string,string,string))":"523a83f9"}}}}}